:020000040800F2
:1000000048600020290300085D5A00084F48000896
:10001000815900082D0A0008618B000800000000CB
:10002000000000000000000000000000690200085D
:10003000E914000800000000C502000881740008EF
:100040004303000843030008430300084303000878
:100050004303000843030008EB140008F1140008F0
:1000600043030008F7140008FD14000843030008C8
:10007000F11300084303000843030008430300088A
:100080004303000843030008430300084303000838
:10009000310A000843030008430300080315000861
:1000A0004303000843030008430300084303000818
:1000B0004303000843030008430300084303000808
:1000C00043030008430300084303000843030008F8
:1000D000430300088D7B0008430300084303000826
:1000E00043030008430300084303000843030008D8
:1000F0005D7500084303000843030008430300083C
:1001000043030008430300084303000843030008B7
:100110004303000843030008517500084303000827
:1001200043030008430300080D14000821140008CD
:100130004303000843030008430300084303000887
:100140003D0A00084303000843030008615A000801
:100150002D14000843030008391400084303000865
:100160004303000843030008430300084303000857
:100170004303000843030008430300080000000095
:10018000430300084303000800F002F800F05CF8A5
:100190000AA090E8000C82448344AAF10107DA45E2
:1001A00001D100F051F8AFF2090EBAE80F0013F0D8
:1001B000010F18BFFB1A43F00103184740CD0000A0
:1001C00060CD00000A444FF0000C10F8013B13F022
:1001D000070408BF10F8014B1D1108BF10F8015BA0
:1001E000641E05D010F8016B641E01F8016BF9D193
:1001F00013F0080F1EBF10F8014BAD1C0C1B09D1EA
:100200006D1E58BF01F801CBFAD505E014F8016B5B
:1002100001F8016B6D1EF9D59142D6D370470000ED
:100220000023002400250026103A28BF78C1FBD8FF
:10023000520728BF30C148BF0B6070471FB50CF094
:10024000E4FB1FBD10B510BD00F0FAF91146FFF731
:10025000F5FF0AF003FA00F018FA03B4FFF7F2FF13
:1002600003BC00F01BFA00002C4B19680868B0E8CA
:10027000F04F80F30988BFF36F8F4FF0000080F3D9
:10028000118870470000000008480068006880F38B
:1002900008884FF0000080F3148862B661B6BFF39F
:1002A0004F8FBFF36F8F00DF00BF00BF08ED00E08E
:1002B000DFF80C00016841F470010160704700BF75
:1002C00088ED00E0EFF30980BFF36F8F134B1A68DE
:1002D0001EF0100F08BF20ED108A20E9F04F1060CB
:1002E00009B44FF0500080F31188BFF34F8FBFF374
:1002F0006F8F0BF075FB4FF0000080F3118809BC85
:1003000019680868B0E8F04F1EF0100F08BFB0EC95
:10031000108A80F30988BFF36F8F70473400002084
:10032000EFF30580704700000948804709480047FF
:10033000FEE7FEE7FEE7FEE7FEE7FEE7FEE7FEE795
:10034000FEE7FEE704480549054A064B70470000F2
:100350004175000889010008485A002048600020C3
:10036000485C0020485C002053EA020C00F06980E1
:100370002DE9F04B4FF00006002B1FBFB3FA83F5B9
:1003800003FA05F424FA05F65E4012BF1643B2FAEA
:1003900082F502FA05F4C5F120051EBF22FA05FC1C
:1003A00044EA0C04203556EA044C4FEA144418BFC2
:1003B000641C4FF000084FF00009904271EB030CF1
:1003C00039D3002919BFB1FA81F701FA07F6B0FA5B
:1003D00080F700FA07F6C7F120071EBF20FA07FCD6
:1003E00046EA0C062037B6FBF4FCA7EB0507103FE6
:1003F00007F01F0BCBF120060CFA0BFB2CFA06F6CC
:1004000044BFB3460026202FA4BF5E464FF0000B2A
:100410005BEA060C08BF4FF0010B19EB0B09ABFBB5
:10042000027C48EB0608C01B06FB02CC0BFB03CC8E
:1004300071EB0C01C1E70B46024641464846BDE858
:10044000F08B13B54FF000004FF00001AFF30080C8
:10045000BDE81C40704710B5431C02E010F8011BBA
:1004600071B18107FAD14FF0013202C88C1A8C4366
:1004700014EAC211F9D0C01A0A0603D0C01E10BD7A
:10048000C01A10BD0A0401D0801E10BD0902FCD0A4
:10049000401E10BD032A40F2308010F0030C00F023
:1004A000158011F8013BBCF1020F624498BF11F8AE
:1004B00001CB00F8013B38BF11F8013BA2F1040267
:1004C00098BF00F801CB38BF00F8013B11F00303DF
:1004D00000F02580083AC0F0088051F8043B083A43
:1004E00051F804CBA0E80810F5E7121D5CBF51F8E5
:1004F000043B40F8043BAFF30080D20724BF11F85F
:10050000013B11F801CB48BF11F8012B24BF00F8C3
:10051000013B00F801CB48BF00F8012B704710B534
:10052000203AC0F00B80B1E81850203AA0E81850EB
:10053000B1E81850A0E81850BFF4F5AF5FEA027CAC
:1005400024BFB1E81850A0E8185044BF18C918C01B
:10055000BDE810405FEA827C24BF51F8043B40F8BC
:10056000043B08BF7047D20728BF31F8023B48BFA1
:1005700011F8012B28BF20F8023B48BF00F8012BDF
:1005800070474FF000020429C0F0128010F0030CF5
:1005900000F01B80CCF1040CBCF1020F18BF00F876
:1005A000012BA8BF20F8022BA1EB0C0100F00DB825
:1005B0005FEAC17C24BF00F8012B00F8012B48BF83
:1005C00000F8012B70474FF0000200B51346944627
:1005D0009646203922BFA0E80C50A0E80C50B1F19B
:1005E0002001BFF4F7AF090728BFA0E80C5048BFAF
:1005F0000CC05DF804EB890028BF40F8042B08BF4D
:10060000704748BF20F8022B11F0804F18BF00F848
:10061000012B704770477047704710B500F008F81D
:10062000006810BD10B5044600F002F8046010BD6B
:1006300000487047E859002000487047E8590020FA
:100640007546FFF7F9FFAE4605006946534620F0B0
:100650000700854618B020B5FFF774FEBDE82040BE
:100660004FF000064FF000074FF000084FF0000B6E
:1006700021F00701AC46ACE8C009ACE8C009ACE821
:10068000C009ACE8C0098D46704710B50446AFF309
:1006900000802046BDE81040FFF7DFBD014918206B
:1006A000ABBEFEE72600020070470000B7EE000A6E
:1006B00080ED000A9FED040A80ED010A80ED020A38
:1006C00080ED030A7047000000000000D2EC031A1E
:1006D00091EC030A05F062B801221021014801F0F3
:1006E00073BF00000000024000221021014801F009
:1006F0006BBF00000000024070470000012211465D
:10070000014801F061BF0000000402400022012105
:10071000014801F059BF00000004024030B54378A1
:1007200004781B021BB2234300EE103A194CB8EEBA
:10073000C00AD4ED000A20EE200A81ED000AC37839
:1007400085781B021BB22B4300EE103AD4ED000A51
:10075000B8EEC00A20EE200A81ED010A437904793F
:100760001B021BB2234300EE103AB8EEC00A20EE83
:10077000200ADFED090A81ED020AD0F8060020F018
:100780007F4000EE100AB8EE400A20EE200A82ED0B
:10079000000A30BDA000002000401C42704709F054
:1007A0009DBF012009F09ABF10B54278037812026C
:1007B00012B21A4300EE102A124BB8EEC00AD3ED63
:1007C000010A20EE200A81ED000AC2788478120224
:1007D00012B2224300EE102AD3ED010AB8EEC00A8D
:1007E00020EE200A81ED010A42790079120212B24C
:1007F000024300EE102AB8EEC00A20EE200A81ED76
:10080000020A10BDA000002010B5FFF775FFFFF72A
:10081000C5FF09F09FF908B1802402E009F006F94C
:10082000044609F065FB10B144F0400010BD09F02A
:10083000F1FA204310BD00002DE9FC4107460020DD
:1008400016460D4600900190FFF74EFF922000F0F3
:10085000BDF806226946122000F09AF8FFF73CFF27
:100860009DF801009DF80010000200B2084300EE60
:10087000100A464CB8EEC00AD4ED000A20EE200A59
:1008800085ED000A9DF803009DF80210000200B2F9
:10089000084300EE100AD4ED000AB8EEC00A20EEBC
:1008A000200A85ED010A9DF805009DF8041000025C
:1008B00000B2084300EE100AB8EEC00A20EE200A8B
:1008C00085ED020AFFF722FF08226946002000F0AA
:1008D0005FF8FFF713FF9DF800000F2830D19DF857
:1008E00003009DF80210000200B2084300EE100A57
:1008F000D4ED010AB8EEC00A20EE200A87ED000A06
:100900009DF805009DF80410000200B2084300EEB7
:10091000100AD4ED010AB8EEC00A20EE200A87EDD5
:10092000010A9DF807009DF80610000200B2084376
:1009300000EE100AB8EEC00A20EE200A87ED020A87
:10094000FFF7D2FEA22000F041F8022269462220E1
:1009500000F01EF8FFF7C0FE9DF800009DF80110A2
:10096000C00040EA5110B0F5806F01DBA0F50060D7
:1009700000EE100AB4EE001AF8EEC00AB3EE070A51
:1009800000EE810A86ED000ABDE8FC81A00000208F
:1009900070B514460D4640F0800000F017F806E0F0
:1009A000552000F013F8641E05F8010BE4B2002C8A
:1009B000F6D170BD10B50C4640F0800000F006F88E
:1009C000552000F003F8207010BD000001B582B082
:1009D0004FF47A700090012301AA02A9024803F0A3
:1009E00021F99DF804000EBDEC0600200278407845
:1009F000D20042EA5010B0F5806F01DBA0F5006034
:100A000000EE100AB4EE001AF8EEC00AB3EE070AC0
:100A100000EE810A81ED000A704710B50C46FFF721
:100A2000D5FF2046BDE81040FFF7D0BFFEE700002D
:100A3000014800F062BF000048060020014800F0B5
:100A40005CBF0000700600204F4A10B51146147AB2
:100A50004E48497A022C3DD19FED4D0A4D4B83ED16
:100A6000020A93ED000ADFED4C0A20EE201A9FEDFA
:100A70004B2AD3ED011A21EE020A61EEA01AF0EE24
:100A8000402A01EEC20A41EE822AFDEEE20A10EE91
:100A9000903AFDEEC00A438110EE903AA0F8523031
:100AA000DFED3F0A022961EE200AB0EE601A41EE46
:100AB000C20A01EE821ABDEEE03AFDEEC11A13EE53
:100AC000103AA0F89A3011EE903AA0F8E2300ED029
:100AD000012939D009B1002C08D100214181A0F8A9
:100AE0005210A0F89A1000BFA0F8E21010BDB2F9A1
:100AF0000010490001EE901AF8EEE11A72EEA11A08
:100B0000FDEEE11A11EE902A01EE901A4281F8EE04
:100B1000E11A30EE210ABDEEC00A10EE102A00EEF6
:100B2000101AA0F85220B8EEC00A30EE800ABDEECE
:100B3000C00A10EE102A00EE101AA0F89A20B8EEA3
:100B4000C00A31EE000A1AE0DFED161A32EEA12AD1
:100B500030EE210ABDEEC22ABDEEC00A12EE101A16
:100B6000418110EE101A30EEA10AA0F85210BDEE2D
:100B7000C00A10EE101A31EE210AA0F89A10BDEE4C
:100B8000C00A10EE101AAFE7EE4F0020140200204A
:100B90000000000020500020F404353F0000FA441B
:100BA0000000FAC400007A4510B500F0ABFBFFF777
:100BB0004BFF00F097F900F02BFABDE81040024916
:100BC000024806F025BB0000140200204806002061
:100BD0002DE9F0412DED088B00F098FCB64E10EE9B
:100BE000100A86ED090A0BF09FFE41EC100B08F08D
:100BF0004FFAB24FB0EE408AF0EE608A97ED000AED
:100C0000B1EE400A10EE100A0BF08EFE53EC182BDA
:100C10000BF0CAFB41EC180B706A0BF085FE41EC3F
:100C2000100B08F0D1F9A64DB0EE409AF0EE609AA4
:100C300028680BF079FE53EC192B0BF0B5FB53EC45
:100C4000182B0BF029F90BF0F5F89E4C2060706A18
:100C50000BF06AFE41EC100B08F0B6F9B0EE408ADA
:100C600097ED000AF0EE608AB1EE400A10EE100A2D
:100C70000BF05AFE53EC182B0BF096FB41EC180BC3
:100C8000706A0BF051FE41EC100B08F001FAB0EE67
:100C9000409A95ED000AF0EE609AB1EE400A10EE2F
:100CA000100A0BF041FE53EC192B0BF07DFB53ECBB
:100CB000182B0BF0F1F80BF0BDF800EE900AA4F140
:100CC0000C00C4ED010A90ED020A7F4884ED020A8F
:100CD0000078DFED7E8A9FED7E8ADFF8F8819FED58
:100CE0007E9A10B1012829D0DAE094ED000A60EE76
:100CF000A80A20EE281A21EE080AF0EE401A00EEAB
:100D0000C80A40EE881ABDEEC00AFDEEE11A11EEE7
:100D1000901AA8F80A1010EE101A21EE090AA8F885
:100D20005210B0EE401A00EE880A00EEC81ABDEE6E
:100D3000C11A11EE101AA8F89A10ABE000F0E6FB09
:100D400086ED090A10EE100A0BF0EEFD41EC100BD7
:100D500008F09EF9F0EE60AAD7ED000AF8EE089AC6
:100D6000B0EE40AA80EEA90A10EE100A0BF0DCFDEE
:100D700053EC1A2B0BF018FB41EC1A0B706A0BF0BA
:100D8000D3FD41EC100B08F01FF9F0EE60BAD5ED81
:100D9000000AB0EE081AB0EE40BA80EE810A10EEFA
:100DA000100A0BF0C1FD53EC1B2B0BF0FDFA53ECBA
:100DB0001A2B0BF071F80BF03DF82060706A0BF005
:100DC000B3FD41EC100B08F0FFF8F0EE60AAD7ED90
:100DD000000AB0EE40AA80EEA90A10EE100A0BF04D
:100DE000A3FD53EC1A2B0BF0DFFA41EC1A0B706ADF
:100DF0000BF09AFD41EC100B08F04AF9F0EE60BAE6
:100E0000D5ED000AB0EE40BA80EEA90A10EE100A45
:100E10000BF08AFD53EC1B2B0BF0C6FA53EC1A2B8C
:100E20000BF03AF80BF006F800EE900A9FED2B1A43
:100E3000C4ED010A94ED000A60EEA80A20EE282A0B
:100E400022EE080AF0EE401A00EEC80A40EE881AB8
:100E500030EE010A71EE811ABDEEC00AFDEEE11A14
:100E600011EE901AA8F80A1010EE101A22EE090AD4
:100E7000A8F85210F0EE401A00EE880A40EEC81AA8
:100E800030EE010A71EE811AFDEEE11A11EE901AB0
:100E9000A8F89A10BDEEC00A10EE101AA8F8E210D9
:100EA00000F020F800F0B4F8BDEC088BBDE8F0418C
:100EB00008490B4806F0ACB9580100200800002092
:100EC000040000202050002040010020F404353FA1
:100ED0000000FA44140200200000FAC400007A4521
:100EE0004806002010B5214CB4F9040000EE100AA9
:100EF000B4F90A00F8EEC00A00EE100A04F110007E
:100F0000B8EEC00A04F069FEB4F94C0000EE100A15
:100F1000B4F95200F8EEC00A00EE100A04F15800CD
:100F2000B8EEC00A04F059FEB4F9940000EE100ABD
:100F3000B4F99A00F8EEC00A00EE100A04F1A0001D
:100F4000B8EEC00A04F049FEB4F9DC0000EE100A65
:100F5000B4F9E200F8EEC00A00EE100A04F1E8006D
:100F6000BDE81040B8EEC00A04F037BE14020020FD
:100F700010B5B1EE080A2DED048B9FED208ADFED50
:100F8000208A9FED209ADFED209AB0EE482AF0EEFD
:100F9000681AB0EE491AF0EE690A1C4809F002FD21
:100FA0001A48B0EE482AF0EE681AB0EE491AF0EE90
:100FB000690AB1EE080A483009F0F4FC1348B0EEB3
:100FC000482AF0EE681AB0EE491AF0EE690AB1EE5E
:100FD000080A903009F0E6FCB0EE482AF0EE681AF4
:100FE000B0EE491AF0EE690ABDEC048BB1EE080AC6
:100FF0000648BDE81040D83009F0D4BC00CC7E468D
:1010000000007A4600000000CDCC4C3F24020020B6
:101010002DE9F0479F4D64202DED0A8B28809FED30
:101020009E1A85ED021A9FED9D8A9D4E85ED038ADD
:1010300095ED043AD5ED063A95ED054A95ED072A6A
:10104000984F0020B0EE480A00EBC00106EBC1014A
:10105000D1ED111AB1F9041000EE901A61EE832A55
:10106000F8EEE00A62EEA02A00EE901A07EB80018B
:10107000F8EEE00A43EEA02A61EE840A40EEA12ACF
:1010800072EE820AC1ED000AF5EEC00AF1EE10FA26
:1010900001D330EE800A401CC0B20428D4D3B4EE91
:1010A000C10A85ED030AF1EE10FA75DDC1EE009A72
:1010B000DFF8F091002409F11009B0EE00BAF1EE6A
:1010C00000BA00BF07EB840090ED000A09EB840032
:1010D00020EE290A80ED000AB5EEC00AF1EE10FA02
:1010E0005DD304EBC40006EBC00195ED041AB1F921
:1010F0000400884600EE900AF8EEE00A60EE818A6D
:1011000000EE900A95ED061AF8EEE00A20EE811A3C
:1011100000EE900AF8EEE00A11EE200AD5ED070A7B
:1011200030EE209A91ED110AB5EEC00AF1EE10FAF8
:1011300095ED05CA2CEE0B0A10EE100A30DD0BF00F
:10114000F3FB28EEA80A6CEE2B0A41EC1A0B00EE1A
:10115000C90A10EE100A0BF0E7FB41EC100B07F088
:10116000FBFFB0EE40CAB1EE680AF0EE60CA10EEC6
:10117000100A0BF0D9FB53EC1C2B0AF08DFE53EC3C
:101180001A2B0AF031FF0AF055FE474928628842BF
:1011900003DD9FED460A2FE035E0C8F844002DE05E
:1011A0000BF0C2FB28EEA80A6CEE2B0A41EC1A0BDE
:1011B00000EEC90A10EE100A0BF0B6FB41EC100B62
:1011C00007F0CAFFB0EE40CAB1EE680AF0EE60CA9E
:1011D00010EE100A0BF0A8FB53EC1C2B0BF0BAFA24
:1011E00053EC1A2B0AF000FF0AF024FE3049286263
:1011F0008842D2D99FED2F0A88ED110A641CE4B20F
:10120000042CFFF45FAF85ED018A264A002095ED9E
:10121000040AD5ED062A95ED053A95ED071A283A08
:1012200000EBC00106EBC101D1ED110AB1F90410C8
:1012300001EE901A20EE802AF8EEE11A22EE212A21
:1012400001EE901A02EB8001F8EEE11A02EEA12AFB
:1012500060EE831A61EEA00A60EE800A00EE802A3A
:1012600072EE010AC1ED000A07EB8001D1ED000A20
:10127000F5EEC00AF1EE10FA01D330EE888A401C78
:10128000C0B20428CCD385ED018ABDEC0A8BBDE841
:10129000F0870000580100200000704200000000AC
:1012A000140200202C50002000007A4600007A46EC
:1012B00000007AC600007AC60E49B1F9060000EEB9
:1012C000100A0E48F8EEC00A9FED0B0A80EE801A55
:1012D00080ED001AB1F9041000EE901AF8EEE00A61
:1012E00080EE801A9FED060A80ED011A80ED020A59
:1012F00070470000EE4F00200000C843145000204B
:101300000000000070B52DED048B00F0FFF8364DA5
:1013100010EE100A85ED090A0BF006FB41EC100BEC
:1013200007F0B6FE314CB0EE408AF0EE608A60689D
:101330000BF0FAFA53EC182B0BF036F841EC190BC2
:10134000686A0BF0F1FA41EC100B07F03DFEB0EECD
:10135000408AF0EE608A20680BF0E6FA53EC182B16
:101360000BF022F853EC192B0AF096FD0AF062FDFF
:1013700004F10C063060686A0BF0D6FA41EC100BF1
:1013800007F022FEB0EE408AF0EE608A60680BF053
:10139000CBFA53EC182B0BF007F841EC180B686AEA
:1013A0000BF0C2FA41EC100B07F072FEB0EE409A5F
:1013B00094ED000AF0EE609AB1EE400A10EE100AC9
:1013C0000BF0B2FA53EC192B0AF0EEFF53EC182B8A
:1013D0000AF062FD0AF02EFD706094ED020A86EDBF
:1013E000020ABDEC048B70BD58010020145000208F
:1013F00010B5044804F048FCBDE81040024800F075
:101400001FBE0000DC4F00202C0A002010B508F0A1
:101410002FFFBDE81040014800F012BE4407002035
:10142000014800F00DBE0000A4070020014800F0B4
:1014300007BE00006C090020014800F001BE00005A
:10144000CC09002001681823CAB2103AB2FBF3F2AB
:10145000054B6FF30901032A9B5CC36500D9091D85
:10146000816508467047000074CA000810B501463F
:1014700000208B698A6A4FF0C07453B1B3F5005FE6
:1014800015D072B1012A0CD0022A0AD0032A09D140
:1014900004E01AB1012A06D0022A03D1C96AC9019F
:1014A00000D5012010BDC96AA142FAD010BD002AA2
:1014B000F7D0012AF2D0022AF3D0032AF3D010BDCC
:1014C00030B50468256825F48025256004686360CC
:1014D0008368402B036803D099600068C26030BD08
:1014E0009A600068C16030BD7047012000F068BF9D
:1014F000022000F065BF082000F062BF102000F05D
:101500005FBF202000F05CBF72B6FEE7214810B537
:1015100090ED031A9FED200A204971EE400A10EE6B
:10152000900A884202DD9FED1E0A06E010EE900A46
:101530001C49884201D99FED1C0A1C48F0EE000AA4
:1015400031EE400A80ED0A0A20EE200A10EE100A61
:101550000BF0EAF99FED161B53EC112B0AF024FF58
:101560009FED151B53EC112B0AF03EFD0AF062FCB7
:1015700000EE100A124910EE100A884202DD9FEDBB
:10158000110A10BD10EE100A0F498842F9D99FEDDB
:101590000F0A10BD34030020F617AB42000034439D
:1015A000FEC5DE43000034C3023A89C3580100205F
:1015B0004AD8124DFB21094000000000008076400F
:1015C000DC0F4940DC0F4940DC0F49C0DC0F49C04B
:1015D00010B558B1084C491E0BD310F8013B5340CD
:1015E000DBB234F8133083EA1222F4E74FF6FF70CF
:1015F00010BD104610BD0000B2CB000810B5054C60
:1016000004E000BF10F8013B5340E25C491EF9D2F0
:10161000104610BDB2CA000890F82020012A07D059
:10162000022A05D0416A41F48021416201207047BD
:10163000006842690A43426100207047F0B590F8A3
:1016400020500468A468012D05D0022D03D0416A02
:1016500041F480214DE014F0406F01D1E50045D503
:10166000C4F301640125A5401D608D684FF4C0736B
:101670009DB1CE6835434E6845EAC605066803EB62
:101680000417F5514FF4C275076805EB04150E6990
:101690007E51097D012905D009E00E88CD6845EA13
:1016A0004655EBE701684E5946F480764E51117964
:1016B000D2F805504FF4C67641EA0521056806EBDD
:1016C0000416A9511178D2F801204FF4C47541EAEB
:1016D0000221026805EB04155151006803EB041167
:1016E000425842F0010242500020F0BD416A41F4EC
:1016F000001141620120F0BD10B590F82020012AB0
:1017000007D0022A05D0416A41F4802141620120BC
:1017100010BD3B48D0F8002242F00102C0F8002280
:10172000D0F8002222F47C52C0F80022D0F8002227
:101730004B6A42EA0322C0F800220A7D02F01F032E
:1017400001229A40D0F81C329343C0F81C32CB6976
:10175000B3B9D0F80C329343C0F80C328C894B6883
:1017600064F31F434C6900EBC404C4F840320C8995
:101770000B6864F31F434C6900EBC404C4F84432A3
:10178000CB69012B16D1D0F80C321343C0F80C32C0
:101790000C884B6864F31F434C6900EBC404C4F825
:1017A00040320C89CB6864F31F434C6900EBC404DE
:1017B000C4F844328B69002BD0F804320ED01343A6
:1017C000C0F804320B69002BD0F8143208D0134350
:1017D000C0F81432096A012904D008E09343EFE706
:1017E0009343F5E7D0F81C121143C0F81C12D0F84F
:1017F000001221F00101C0F80012002010BD00000D
:1018000000640040704770B590F82040012C05D06E
:10181000022C03D0416A41F4802128E0046809B316
:101820002469A40720D04FF4D874056804EB011490
:101830002D5915F00405956005682D591AD0ED084D
:10184000556005682C5904F00204D4604FF4DA7432
:10185000056804EB01142E5906F00F06082E0CD370
:1018600008250DE0E468DCE7416A41F400114162BB
:10187000012070BD6D0D1560E3E72D5905F00F05D2
:10188000156105682D59C5F30725956105682C5923
:10189000240C54614FF4DC72046802EB0112A4586A
:1018A0001C700468A458240A5C700468A458240CB2
:1018B0009C700468A258120EDA704FF4DE7204684D
:1018C00002EB0112A4581C710468A458240A5C712C
:1018D0000468A458240C9C710468A258120EDA7192
:1018E000006829B1016941F020010161002070BD4B
:1018F000C16841F02001C160F8E72DE9F05F0546BD
:10190000006800244669D0F804908768D0F80CB0CD
:10191000D0F810A0D0F81880F10748D0F90714D0FB
:1019200001218160B80703D5284600F002FB0CE0D6
:10193000780702D54FF4006407E0380702D54FF46A
:10194000805402E0284600F0F3FAF80516D529681D
:101950004FF480708860B80503D5284600F0EBFA94
:101960000CE0780502D544F4005407E0380502D5B0
:1019700044F4804402E0284600F0DCFAF80316D56F
:1019800029684FF480308860B80303D5284600F0FA
:10199000D4FA0CE0780302D544F4004407E038039D
:1019A00002D544F4803402E0284600F0C5FA30073E
:1019B00007D55FEACB6004D52968102044F4007491
:1019C000C86070074FF0080707D55FEA0B7004D5B1
:1019D0002868C760284600F099F9B00706D528683E
:1019E000C068800702D0284600F092F9700607D53B
:1019F0005FEACA6004D52968102044F48064086155
:101A0000B00607D55FEA0A7004D528680761284642
:101A100000F05EFAF00606D528680069800702D05B
:101A2000284600F056FAB00308D55FEAC96005D52C
:101A3000296810204860284600F04CFAF00307D5CA
:101A40005FEA097004D528684760284600F076FAF6
:101A5000300446D55FEA497040D5F00504D55FEA09
:101A6000C87001D044F00104B00504D55FEA887065
:101A700001D544F00204700504D55FEA487001D531
:101A800044F00404300529D518F0700F26D008F072
:101A90007000402815D006DC102809D020280AD074
:101AA000302816D10AE050280ED0602811D10EE05F
:101AB00044F008040DE044F010040AE044F020046F
:101AC00007E044F0400404E044F0800401E044F402
:101AD00080742868816921F070018161296804207F
:101AE0004860002C05D0686A204368622846FFF7EA
:101AF00089FEBDE8F09F70B5040003D094F8200083
:101B000010B104E0012070BD204600F081F820688B
:101B1000016841F00101016000F05CFD0546052609
:101B200004E000F057FD401B0A2811D820684068E7
:101B3000C007F6D02068016821F00201016000F0C2
:101B400049FD05460BE000F045FD401B0A2806D97B
:101B5000606A40F40030606284F82060D2E7206858
:101B600040688007EFD4207E0128206801683DD0BE
:101B700021F080010160607E01282068016838D072
:101B800021F040010160A07E01282068016833D067
:101B900021F020010160E07E0128206801682ED03C
:101BA00041F010010160207F01282068016829D0E0
:101BB00021F008010160607F01282068016824D0BD
:101BC00021F004010160D4E902010843D4E90412C0
:101BD000114308436168491E08432168C861002019
:101BE0006062012084F82000002070BD41F0800177
:101BF000C0E741F04001C5E741F02001CAE721F00C
:101C00001001CFE741F00801D4E741F00401D9E722
:101C1000F0B587B0044614216846FEF7D4FC364B75
:101C20003648DFF8D0E01968D4F800C0334A0325FD
:101C30000226092710300024491CF44522D11960DE
:101C4000012907D1016841F000710160006800F0CE
:101C500000700590106840F0080010601068CDE931
:101C6000005600F00800CDE9047069462448CDE92B
:101C7000024500F0B1FB00220521142000F0F0FF26
:101C8000142032E0DFF87CE0F44530D1D0F800C019
:101C90004CF0806CC0F800C0D0F800C001290CF0F6
:101CA000806CCDF814C0196007D1016841F0007153
:101CB0000160006800F000700590106840F00200BC
:101CC0001060106802AB00F0020005906020CDE9C2
:101CD000000683E8B00069460B4800F07DFB002257
:101CE0000521402000F0BCFF402000F0ABFF07B012
:101CF000F0BD0000006400401800002030380240B1
:101D0000000C0240006800400004024070470000E0
:101D100010B50446006866498AB088423ED16B46D9
:101D200002AA00212046FFF76EFD02986149A0F546
:101D30000070013806D0012814D0022818D00328DA
:101D40002CD11BE0BDF8000040BA4880BDF802006D
:101D500040BA8880BDF8040040BAC8809DF80600EB
:101D600008721BE0BDF8000040BA21F84A0F0AE0F3
:101D7000BDF8000040BA21F8920F04E0BDF8000061
:101D800040BA21F8DA0FBDF8020040BA4880BDF829
:101D9000040040BA88809DF8060088714649206892
:101DA00088421DD16B4602AA00212046FFF72BFD79
:101DB000029840F209334149A0F2093298423FD0DB
:101DC00010DCA0F58070413823D0462808D19DF85A
:101DD000000008709DF8010048709DF802008870AE
:101DE0000AB010BD072A4ED0FB2AF9D133489DF81E
:101DF0000020083002709DF8012042709DF80220FA
:101E000082709DF80320C27090ED000A81ED030AF4
:101E1000E6E72B489DF801100170BDF802104180E3
:101E2000BDF804108180BDF80620C280642211FB39
:101E300002F100EE101AB8EEC00A80ED050ACFE7F5
:101E40001E489DF80010103001709DF8011041707F
:101E50009DF8021081709DF80310C1709DF8041068
:101E600001719DF8051041719DF8061081719DF872
:101E70000710C171134990ED000A81ED000A90ED41
:101E8000010A114810E00D489DF80010001D017076
:101E90009DF8011041709DF8021081709DF80310AB
:101EA000C17090ED000A094880ED000A98E7000033
:101EB000006400401402002000680040400100203F
:101EC000340300200400002008000020000000204F
:101ED000704770477047000070B5044690F82000C6
:101EE000012804D0606A40F40020606218E00220FB
:101EF00084F820002068016821F00101016000F0F1
:101F000069FB05460EE000BF00F064FB401B0A2899
:101F100008D9606A40F400306062052084F820002F
:101F2000012070BD20684068C007EDD1606270BDBF
:101F3000704770477047704770477047704710B5DB
:101F4000040002D0607910B106E0012010BD00202D
:101F50002071204600F004F801206071002010BDBF
:101F600008B500680649884208D10648016841F46E
:101F700080510160006800F48050009008BD0000AE
:101F800000300240303802402DE9F0410446876DB0
:101F900000F020FB064694F835000025022806D004
:101FA0008020606584F834500120BDE8F08120680D
:101FB000016821F0160101602068416921F080016B
:101FC0004161206C08B9A06C20B12068016821F043
:101FD000080101602068016821F0010101600CE046
:101FE00000F0F8FA801B052807D92020606503203F
:101FF00084F8350084F83450D7E720680068C007BB
:10200000EED194F85C103F208840B860012084F83D
:10201000350084F834500020C7E790F835100229C5
:1020200003D08021416501207047052180F83510DB
:102030000068016821F00101016000207047000084
:102040002DE9F84304464FF00009CDF800906348AD
:102050004FF41651A56D0068B0FBF1F72E6894F8A7
:102060005C10082000FA01F131420FD021680A68A3
:1020700052070BD50A6822F004020A6094F85C103B
:102080008840A860606D40F00100606594F85C10C5
:102090004FF0010808FA01F0304208D02168496980
:1020A000090604D5A860606D40F00200606594F8F0
:1020B0005C1004208840304208D0216809688907F4
:1020C00004D5A860606D40F00400606594F85C1071
:1020D00010208840304218D021680968090714D5BB
:1020E000A86020680168490304D50068000308D58A
:1020F000A16C07E00168C90503D4016821F008015B
:102100000160216C09B12046884794F85C102020BA
:102110008840304231D021680968C9062DD5A860B1
:1021200094F8350005282068016806D0490347D592
:10213000006800031DD4616C1CE021F016010160F1
:102140002068416921F080014161206C08B9A06CD0
:1021500020B12068016821F00801016094F85C104A
:102160003F208840A86084F8358084F83490216D41
:102170001FE0E16B09B120468847606D00282BD035
:10218000606DC00714D0052084F835002068016810
:1021900021F0010101600098401C0090B84203D872
:1021A00020680068C007F6D184F8358084F8349040
:1021B000E16C002910D001B02046BDE8F04308478B
:1021C0000168C905D5D4016821F01001016084F8C7
:1021D000358084F83490CCE7BDE8F88330000020E7
:1021E0002DE9F041044600F0F5F906465CB1022005
:1021F00084F83500002584F834502068016821F007
:10220000010101600DE00120BDE8F08100F0E2F97C
:10221000801B052805D920206065032084F835003F
:10222000F2E720680068C007F0D1226811682048F2
:102230000140D4E901031843D4E90336334318437A
:1022400063691843A3691843E3691843236A184371
:102250000843616A042903D1D4E90B1319430843E5
:10226000106020684069666A20F0070130460E431E
:10227000012704280CD1A06A0643E06A40B1204639
:10228000FFF7F4F820B14020606584F83570BAE7B4
:10229000206846612046FFF7D5F894F85C203F217E
:1022A00091408160656584F835700020ACE70000DE
:1022B0003F8010F02DE9F0410446866D90F834001F
:1022C000002501280DD0012084F8340094F83570E1
:1022D0000020012F07D084F8340002252846BDE8ED
:1022E000F0810220FBE7022784F835706065204604
:1022F000FFF7E6F894F85C103F208840B060206853
:10230000016841F016010160206C20B1206801686D
:1023100041F0080101602068016841F0010101609D
:10232000DCE7000010B5244C10280AD0202811D07A
:1023300008281AD001282AD0022801D10120A07132
:1023400010BD607840F001006070A07840F001009E
:10235000A07003E0207840F0010020702079002870
:10236000EED0BDE8104007F0C3BEE07840F00100B9
:10237000E070E07810F00100E070E1D0E07820F04B
:102380000100E070E07840F00200E07010BD09F05C
:1023900069FC0128FAD00849A06A243109F088FABA
:1023A000606A0028F2D005494FF080500860BFF302
:1023B0004F8FBFF36F8F10BDCC00002004ED00E005
:1023C000044910B50A68024202D00860FFF7AAFF6C
:1023D00010BD0000143C01402DE9F84FDFF8BCA10E
:1023E0000022012503264FF00F090AF1040BAAF180
:1023F000040E00BF0B6805FA02F42340A34270D11B
:102400000F7907F00307012F01D0022F16D187683B
:102410004FEA420806FA08FC27EA0C07D1F80CC07C
:102420000CFA08FC4CEA070CC0F808C04768A74340
:102430000C79C4F3001494403C4344600C79E443A9
:10244000A4070AD0C4684FEA420C06FA0CF7BC4352
:102450008F6807FA0CF72743C7600C7904F0030470
:10246000022C12D1D40800EB840CDCF82040570772
:10247000FF0E09FA07F824EA0804D1F8108008FAD8
:1024800007F848EA0408CCF8208004684FEA420CB8
:1024900006FA0CF7BC430F7907F0030707FA0CF7AD
:1024A000274307604C6814F4403F70D03C4C2768C9
:1024B00047F480472760246822F0030704F480442F
:1024C0000094384C07EB040CDCF8084897074FEAF7
:1024D000177809FA08F7BC43334FB84202D10027F6
:1024E00024E054E0314FB84201D101271EE0304FC3
:1024F000B84201D1022719E02E4FB84201D103277B
:1025000014E02D4FB84201D104270FE02B4FB84201
:1025100001D105270AE02A4FB84201D1062705E07C
:10252000284FB84201D1072700E0082707FA08F72B
:102530002743CCF80878DAF800405746D1F804C0B1
:102540009C435FEACC2C00D51C433C60DBF8004088
:102550005F46D1F804C09C435FEA8C2C00D51C4335
:102560003C60DEF800407746D1F804C09C435FEA47
:102570008C3C00D51C433C60084F083F3C68D1F8B8
:1025800004C09C435FEACC3C00D51C433C60521C19
:10259000102AFFF42FAFBDE8F88F0000083C01407F
:1025A0004438024000300140000002400004024074
:1025B00000080240000C02400010024000140240DB
:1025C00000180240001C02400AB1816170470904F2
:1025D000FBE70000014880687047000024000020ED
:1025E00070B5040025D094F83D00002520B984F88A
:1025F0003C50204600F052FA242084F83D00206828
:10260000016821F0010101602068016841F4004186
:1026100001602068016821F40041016001F010F8B8
:102620004D4A6168914201D84C4900E04C498842CA
:1026300001D2012070BD4B492368B0FBF1F15E6807
:1026400026F03F060E435E606368934206D94FF45E
:10265000967359434FF47A73B1FBF3F12368491C25
:102660001E6A26F03F06314319626168914210D814
:102670004900401EB0FBF1F2521CC2F30B02042AC7
:1026800001D2042022E0B0FBF1F0401CC0F30B00AB
:102690001CE0A268F2B301EBC10303EB0116431E79
:1026A000B3FBF6F35B1C43F480431B0549D092B3A4
:1026B00001EBC10202EB0111401EB0FBF1F0401C26
:1026C000C0F30B0040F4804040F400402168CA6928
:1026D0004CF6FF739A431043C861D4E907100143D5
:1026E0002068026822F0C00211430160D4E90301AE
:1026F00001432068826848F2FF339A4311438160A6
:10270000D4E9050108432168CA6822F0FF0210439A
:10271000C86001E00EE016E02068016841F00101A8
:1027200001602564202084F83D00256384F83E5034
:10273000002070BD01EB4106431EB3FBF6F35B1CAA
:10274000B3E70120C2E701EB4101401EB0FBF1F00D
:10275000401CC0F30B00B7E7A086010080841E0078
:1027600000093D0040420F002DE9FF4F83B09A461B
:10277000DDE9118793460446DDF84090FFF72AFF14
:10278000054694F83D00202870D119230122744990
:102790002046009502F072F90028F5D194F83C002B
:1027A000012863D0012084F83C0020680168C90733
:1027B00003D1016841F0010101602068016821F442
:1027C00000610160222084F83D00402084F83E0032
:1027D00000262664C4F82490A4F82A80608D208501
:1027E0006048E062CDE9007553465A462046049998
:1027F00002F046F8002879D1208DD0B1012821D0EF
:102800000228206824D0416980690090208D032827
:1028100066D801282BD0544902283B464FF00002CD
:10282000009557D08846204602F028F900285DD14F
:102830003AE02068416981690091016841F40071C2
:1028400001607DE02068016821F480610160F0E7AB
:10285000016821F4806101602068016841F4006131
:102860000160206841698069009069E075E02A464E
:102870003946204602F0A8F988BB54E02068016878
:1028800041F40071016020680069616A0870606A43
:10289000401C6062218D491E2185618D491E618524
:1028A00021680969017042E02068016821F48061B3
:1028B000016020680069616A0870606A401C60629B
:1028C000208D401E2085608D401E60853B46002285
:1028D00041460095204602F0D1F800B9CEE705E068
:1028E0002A463946204602F06FF918B1012007B098
:1028F000BDE8F08F20680069616A0870606A401C5A
:102900006062208D401E81B22185608D401E6085F1
:1029100020684269D243520712D4032903D10168C7
:1029200021F48061016020680069616A0870606A52
:10293000401C6062208D401E2085608D401E608599
:10294000208D00287FF462AF202084F83D0084F8B9
:102950003E6084F83C600020C9E70220C7E7000021
:10296000020010000000FFFF040001002DE9FF4FEE
:1029700083B09A46DDE9119793460446DDF840801E
:10298000FFF728FE054694F83D0020287FD1192343
:10299000012240492046009502F070F8002876D1C7
:1029A00094F83C00012872D0012084F83C00206893
:1029B0000168C90703D1016841F001010160206885
:1029C000016821F400610160212084F83D0040206D
:1029D00084F83E0000262664C4F82480A4F82A90D7
:1029E000608D20852C48E062CDE9007553465A463B
:1029F0002046049901F0C2FF70B930E02A463946FA
:102A0000204602F019F958B1206C042804D120683E
:102A1000016841F400710160012007B0BDE8F08F4A
:102A2000606A216800780861606A401C6062218DDC
:102A3000491E89B22185628D521E628522685369C2
:102A4000DB435B070BD469B100781061606A401CFE
:102A50006062208D401E2085608D401E6085208D27
:102A60000028CBD12A463946204601F0DBFF00285A
:102A7000CAD154F83D0B016841F400710160202077
:102A800004F81E09E67766770020C6E7FFE7022014
:102A9000C3E70000020010000000FFFFF0B587B0A0
:102AA000044614216846FDF78EFD1D4920688842C2
:102AB00033D11C480024016841F004010160016821
:102AC00001F004010591016841F001010160006815
:102AD000122500F0010005904FF40070CDE90005CB
:102AE00002AA0326042782E8D00069460E48FFF7B1
:102AF00073FCB801CDE9000502AA694682E8D0005E
:102B00000A48FFF769FC07481030016841F40001EA
:102B10000160006800F40000059007B0F0BD0000FF
:102B2000005C0040303802400008024000000240D3
:102B300002488168027811448160704724000020B7
:102B40000B4810B5016841F400710160016841F45F
:102B500080610160016841F480710160032000F030
:102B60009FF80F2000F006F800F050F8002010BD8C
:102B7000003C024030B505461F4887B0002401687C
:102B800041F010010160006806A900F010000090FB
:102B900001A800F02FFD0498A8B100F051FD4000FD
:102BA0001649174AB0FBF1F11648491E026040F27F
:102BB000E732C0E90324C0E90114846101F09EF901
:102BC000040003D015E000F03BFDE9E70D4801F0FB
:102BD000EFF904000DD1362000F034F8102D07D2A3
:102BE00000222946362000F03BF80748056000E047
:102BF000012407B0204630BD4038024040420F005B
:102C0000001000408C0A0020280000200C4882B0F0
:102C1000016841F480410160006800F48040009048
:102C20000748001F016841F08051016000680022E0
:102C300000F0805000900F21901E02B000F010B8FC
:102C400044380240002809DB00F01F0201219140B6
:102C50004009800000F1E020C0F80011704700003A
:102C6000F0B40E4B1B680C46C3F30223C3F10705F7
:102C7000042D00D90425191D072901D2002300E0E5
:102C8000DB1E012606FA05F1491E214099409E40AF
:102C9000761E16403143F0BC05F0C6BF0CED00E0D7
:102CA000064900F0070208684FF6FF03184040EAA3
:102CB0000220034A10430860704700000CED00E05A
:102CC0000000FA057047D0F8E00405F0FFB801EB0A
:102CD000C10200EB8202D0F8E004126A05F054B899
:102CE00001EBC10200EB8202D0F8E004D2F86022CE
:102CF00005F0A5B8D0F8E00405F0EAB80A0601F03E
:102D00000F0101EBC10100EB810101D5143101E09C
:102D100001F51571006805F0C1BD70B5044601F0FC
:102D20000F002279904201D9012070BD0B0601F0FD
:102D30000F0101EBC10104EB81014FF001024FF0E3
:102D4000000502D54A75143103E081F8555201F5AA
:102D500015718D70087094F89404012808D084F8D7
:102D60009424206805F026FC84F89454002070BD5B
:102D7000022070BD2DE9F04104460F0601F00F005E
:102D800000EBC00104EB81014FF001064FF000059C
:102D900002D54E75143103E081F8555201F51571D5
:102DA000C2F30A0208708A600B714A7802B1488344
:102DB000022B00D14D7194F89404012809D084F8B5
:102DC0009464206805F07CFB284684F89454BDE8A0
:102DD000F0810220FBE710B501F00F0404EBC40101
:102DE00000EB8101C1E998230023C1F8683281F822
:102DF000553281F85442837901F51571012B00D1C8
:102E0000CA618279006805F02DFC002010BD70B504
:102E100004460D4601F00F002179884201D90120B6
:102E200070BD29064FF000064FF0010206D500EBF9
:102E3000C00104EB81014A75143107E005EBC501BF
:102E400004EB810181F8556201F515718A700870F3
:102E500094F89404012807D084F89424206805F09D
:102E6000D5FB280702D007E0022070BDA17904F24B
:102E70009C42206805F072FB84F89464002070BDC9
:102E800010B501F00F0404EBC40100EB8101C1E9AE
:102E9000082300238B6201234B7501F8144F8379BB
:102EA000012B00D1CA618279006805F0DBFB0020AC
:102EB00010BD00002DE9FC5F05680446284605F0BA
:102EC00067FD00287DD1206805F08EFD002878D0B0
:102ED000D5F80808C0F30D20C4F8D404206805F024
:102EE00083FD800704D52068416901F0020141613A
:102EF000206805F079FDC10604F29C40009034D5AD
:102F00002068816921F0100181612F6A07F00F00AC
:102F100000EBC00004EB8006C7F3434006F51576CE
:102F2000022802D0062811D01AE047F6F0700742B6
:102F300016D0C7F30A1217462846F16805F058FD67
:102F4000F0683844F0607069384408E00822284688
:102F5000009905F04DFD7069C7F30A1108447061CE
:102F60002068816941F010018161206805F03CFD15
:102F700000034FF0080B4FF0000A4FF001097CD519
:102F80000026206805F00FFD074674E0F80770D0B2
:102F9000F1B2206805F020FD8046C00707D005EBA0
:102FA0004611C1F8089B3146204602F05FFD5FEAFA
:102FB000087024D505EB4611C1F808BB2068016CE8
:102FC00000E023E200EB46100191D0F8082BFB4B08
:102FD000994205D9110403D54FF40041C0F8081BEC
:102FE000204600F04EFAF5490198884207D9A079A9
:102FF000012804D120680121009A05F0AFFA5FEAA8
:10300000C86004D505EB46111020C1F8080B5FEA33
:1030100088701DD56869000605D5D5F8040840F408
:103020008061C5F8041806EBC60004EB800090F838
:10303000571200F51570012905D180F803A0F1B2EF
:10304000204600F0E9F905EB46110220C1F8080B13
:103050005FEA886004D505EB46102021C0F8081B04
:103060005FEA884005D505EB46104FF40051C0F8E3
:10307000081B7F08761C002F88D1206805F0B4FC5F
:1030800040036ED5206805F087FC0746002666E001
:10309000F80762D0F1B2206805F08CFC8046C007CA
:1030A00023D006F00F01D5F8342809FA01F18A433C
:1030B000C5F8342805EB4611C1F80899A079012814
:1030C0000FD106EBC60004EB8000D0E907211144C4
:1030D000016236B9606A20B920680121009A05F0C2
:1030E0003DFAF1B22046FFF7F2FD5FEA087003D522
:1030F00005EB4611C1F808B95FEAC86004D505EBD5
:1031000046111020C1F808095FEA486004D505EBB4
:1031100046104021C0F808195FEA887016D531467C
:10312000284605F00AFC06EBC60004EB8000C17DD2
:103130001430012905D180F803A0F1B2204600F037
:1031400067F905EB46110220C1F808095FEA08603B
:1031500003D53146204602F0EFFC7F08761C002F95
:1031600096D1206805F040FC002811DAD5F8040853
:1031700020F00101C5F8041894F8CC0401282BD0E4
:10318000204600F063F92068416901F00041416187
:10319000206805F029FC00050BD5D5F80808C00704
:1031A00002D0204600F074F92068416901F4006102
:1031B0004161206805F018FCC00467D5D5F8040803
:1031C00020F00100C5F804081021206805F0B5FBC7
:1031D00000214FF67F3220E084F8CCA40021204665
:1031E000FFF770FDCFE700BF05EB4110C0F80829DD
:1031F000D0F8003923F40013C0F80039C0F8082BC8
:10320000D0F8003B23F40013C0F8003BD0F8003B9B
:1032100043F00063C0F8003B491C20798842E3D8A2
:10322000D5F81C0840F00111C5F81C18E07B0028F7
:1032300028460DD0D0F8840840F00B01C5F884185A
:10324000D5F8440840F00B012846C5F844180DE0B5
:10325000D0F8140842F22B010843C5F81408D5F839
:10326000100840F00B012846C5F81018D0F80008E7
:1032700020F4FE61C5F80018A1792068009A05F0D5
:103280006DF92068416901F480514161206805F0C1
:10329000ABFB800415D5206805F052F9206805F0D5
:1032A0006AFBE07100F0C6F90146E279206805F09A
:1032B000CFFB204600F0B4F82068416901F40051CA
:1032C0004161206805F090FB000707D5204600F01B
:1032D000C1F82068416901F008014161206805F0EA
:1032E00083FB000616D5A86920F08001A96101269C
:1032F0000DE000BF06EBC60004EB800090F857021B
:10330000012803D1F1B22046FFF7F8FC761C2079A2
:10331000B042EFD8206805F067FBC0021FD5012638
:103320004F4614E005EB4610D0F8001906EBC60036
:1033300004EB8002107E012808D1002906DAF0B2E1
:1033400040F08001D7752046FFF7D8FC761C207925
:10335000B042E7D82068416901F4801141612068DA
:1033600005F042FB800234D501204A4629E000BF27
:1033700005EB4011D1F8001B00EBC00304EB830305
:1033800093F85862012E1BD1002919DA94F8D464FD
:1033900001F4803106F00106B14211D183F85722C1
:1033A000A96941F08003AB616969090608D4D5F8C1
:1033B000040840F40070C5F8040805E00A30544FD2
:1033C000401C21798142D3D82068416901F4001161
:1033D0004161206805F008FB400007D52046FFF753
:1033E00072FC2068416901F080414161206805F06C
:1033F000FBFA40070AD520684568680702D52046D1
:10340000FFF778FC2068416829434160BDE8FC9FD4
:10341000D0F8E00404F07ABDD0F8E00404F08ABDEE
:1034200070B50446C079012570B1022801D0FEF7BD
:103430006BF82946D4F8E00404F0EAFDD4F8E0047F
:10344000BDE8704004F09FBD0025F2E7D0F8E0042D
:1034500004F0C7BDD0F8E00404F0CDBD10B50446BB
:1034600090F8940401280AD0012084F8940461742F
:10347000206805F0DCFA002084F8940410BD0220D6
:1034800010BDD0F8E02400F29C41104604F0CCBD01
:1034900010B50446D0F8E00404F0FFFD2068D0F831
:1034A000001E41F00101C0F8001EE07A002804D09F
:1034B0000248016841F00601016010BD10ED00E016
:1034C0002DE9F0470E46050065D0DFF81481D8F8E5
:1034D0000000F7B200F00700B04207D288F8007091
:1034E000D8F8000000F00700B04254D128683D4CE5
:1034F000810712D5400703D5206840F4E0502060D2
:103500002878000703D5206840F4604020602068D8
:10351000A96820F0F000084320602878C0072DD06B
:10352000304968680839012812D0022813D00328CE
:1035300011D00968890700292DDA216821F00301DB
:1035400001432160FFF746F8814641F2883A0EE0D8
:1035500009688903EFE709688901ECE7FFF73AF8A2
:10356000A0EB0901514502D90320BDE8F08720688E
:10357000696800F00C00B0EB810FEFD1D8F80010B3
:10358000404601F00701B14207D90770006800F01A
:103590000700B04201D00120E7E72878400705D5B1
:1035A0002068E96820F4E05008432060287800078C
:1035B00006D52068296920F4604040EAC1002060F7
:1035C00000F05EF82168084AC1F30311515CC8405D
:1035D0000649086006480068FFF7CCFA0020C4E7F7
:1035E000003C0240083802407CCA0008300000203D
:1035F000280000200F2202600C4A136803F0030326
:103600004360136803F0F0038360136803F4E0532E
:10361000C36012684FF4E05303EAD2020261044827
:10362000006800F00700086070470000083802409A
:10363000003C024001480068704700003000002054
:103640000448054900680968044AC1F38221515CB5
:10365000C840704730000020083802408CCA00087B
:103660000448054900680968044AC1F34231515CC5
:10367000C840704730000020083802408CCA00085B
:10368000154810B5006810F00C02144813D0144906
:10369000042A0FD0082A0ED10F4C241F2268236859
:1036A00002F03F025B0207D52068C0F38810A0FB40
:1036B000010106E0084610BD2168C1F38811A1FB95
:1036C00000010023FCF750FE2168C1F30141491CB1
:1036D0004900B0FBF1F010BD083802400024F400AE
:1036E000001BB7002DE9F84F04006ED02078DFF8FA
:1036F0004C93C007A9F104054AD009F10400016800
:10370000C1F38101012908D00068C0F381000228BB
:103710000AD1D9F80000400206D52868800337D5C1
:1037200060680028E1D033E06068B0F5803F10D0D9
:10373000B0F5A02F286810D020F4803028602868C9
:1037400020F4802028606068A8B1FEF743FF064699
:103750000DE0286840F48030F4E740F480202860D1
:10376000F7E700BFFEF736FF801B642873D8286890
:103770008003F7D50CE0FEF72DFF064605E000BFFD
:10378000FEF728FF801B6428F0D828688003F7D450
:103790002078DFF8AC8280074FF0000A3ED5A748BA
:1037A000001D016811F00C0F08D00068C0F3810003
:1037B00002280BD1D9F80000400207D428688007FE
:1037C00016D5E068012800D112E033E1E068B8B115
:1037D0000120C8F80000FEF7FDFE064605E000BF28
:1037E000FEF7F8FE801B0228C0D828688007F7D5AE
:1037F0002868216920F0F80040EAC10028600DE047
:10380000C8F800A0FEF7E6FE064604E0FEF7E2FE7A
:10381000801B02281FD828688007F7D4207800076B
:1038200022D5864F87486169703771B101210160E7
:10383000FEF7D0FE064604E0FEF7CCFE801B022811
:1038400009D838688007F7D50EE0C0F800A0FEF769
:10385000C1FE064605E082E0FEF7BCFE801B0228A2
:103860007DD838688007F7D42078400768D5DFF81E
:10387000CCB100270BF13C0BDBF80000C0000BD4EF
:10388000DBF8001041F08051CBF80010DBF80000AD
:10389000012700F0805000906B4E3068C00510D4B6
:1038A000306840F480703060FEF794FE009005E0D0
:1038B000FEF790FE0099401A022850D83068C005E3
:1038C000F6D55E4EA0686C3601280FD0052830680A
:1038D00010D020F001003060306820F0040030602B
:1038E000A068B8B1FEF776FE00900FE0306840F0B7
:1038F0000100F4E740F004003060F7E7FEF76AFEED
:103900000099411A41F28830814266D830688007B8
:10391000F4D50EE0FEF75EFE009007E0FEF75AFEDB
:103920000099411A41F28830814256D830688007A8
:10393000F4D42FB1DBF8001021F08051CBF8001047
:10394000A069C8B33D49091D0968C1F38101022975
:103950004AD00228504607D0C8F8600000E03CE09A
:10396000FEF738FE04463BE04746C8F86000FEF725
:1039700031FE064605E000BFFEF72CFE801B022844
:103980002BD828688001F7D4D4E907010843A16A3D
:103990002E4A490802EB0141626A41EA821108435A
:1039A00094F82C1040EA0161C9F800100120386633
:1039B000FEF710FE044606E03EE000BFFEF70AFEFA
:1039C000001B022809D828688001F7D534E000BF21
:1039D000FEF700FE001B022802D90320BDE8F88F85
:1039E00028688001F4D427E00128F7D0D9F8000036
:1039F000E26900F4800191421CD1226A00F03F018B
:103A0000914217D147F6C071626A0140B1EB821F43
:103A100010D1A26A4FF0FF3300F4403103EB5202A1
:103A2000B1EB024F06D194F82C1000F07060B0EBAF
:103A3000016F01D00120D1E70020CFE70438024018
:103A400000004742800E4742007000400000FFFF28
:103A500070B5040009D0606A002540B12561656138
:103A6000A56294F8510040B10CE0012070BD60687F
:103A7000B0F5827FF4D0E561F2E784F8505020463B
:103A800000F044F8022084F851002068016821F019
:103A900040010160A088218900F4827001F4044192
:103AA0000843A18901F400610843217C01F002016F
:103AB0000843217D01F001010843218B01F40071CD
:103AC0000843217F01F03801084394F8201001F0E9
:103AD00080010843218D01F40051084321680860EA
:103AE000A069042101EA104094F8241001F01001AB
:103AF0000843216848602068C16921F40061C16100
:103B00006565012084F85100002070BD2DE9F04763
:103B100086B0064614216846FCF755FD3B493068DF
:103B2000884270D13A480024016841F48051016014
:103B3000006800F48050059035481438016841F061
:103B400002010160016801F002010591016841F084
:103B5000010101600068022500F0010005901020BD
:103B60004FF001098DE8210203274FF00508DFF827
:103B7000A4A0CDE9037869465046FEF72DFC082045
:103B8000CDE9000502AA694682E890015046FEF799
:103B900023FC80208DE82102CDE9037869461E4888
:103BA000FEF71AFC1E4D1D487F062860C5E901740A
:103BB0004FF48068C5E903486C617812AC61C5E9CF
:103BC000074028466C62FEF70BFB08B1FDF79CFC32
:103BD000F564AE63124D114860351830E5E8020710
:103BE0004020A5E81101C00245F81449AC61C5E9BF
:103BF00007400B486C626030FEF7F2FA08B1FDF73F
:103C000083FCB564AE6306B0BDE8F08700300140C8
:103C10004438024000040240000002404064024078
:103C2000440700202DE9FF4F81B01D46934604460E
:103C30004FF001090E9EFEF7CDFC074694F85100A7
:103C40006168012806D0B1F5827F3CD1A168C9BB6B
:103C5000042838D10298002871D0BBF1000FFBD0A6
:103C6000002DF9D094F8500001282CD04FF0010A13
:103C700084F850A094F85100042802D0052084F85C
:103C800051004FF00008C4F85480C4F838B0E587FC
:103C9000A58702992163E586A586C4F84080C4F80B
:103CA000448020680168490603D4016841F040015E
:103CB0000160E068B0F5006F606808D0F0B3012DD6
:103CC00049D081E0FFE7022005B0BDE8F08F08B1E0
:103CD000012D39D1206B21680088C860206B801CC1
:103CE0002063E08E401EE0862EE020688168890710
:103CF0000FD5E18E69B1B9F1010F0AD1216B0988A5
:103D0000C160206B801C2063E08E401EE0864FF077
:103D1000000920688168C9070CD0E18F51B1C068E3
:103D2000A16B0880A06B801CA063E08F401EE08721
:103D30004FF00109FEF74EFCC01B01E00BE067E00D
:103D4000B04201D3701C50D1E08E0028CDD1E08F5D
:103D50000028CAD13EE0206B216800780873206BF0
:103D6000401C2063E08E401EE0862DE020688168C4
:103D700089070FD5E18E69B1B9F1010F0AD1216B25
:103D800009780173206B401C2063E08E401EE086A2
:103D90004FF0000920688168C9070CD0E18F51B14C
:103DA000C068A16B0870A06B401CA063E08F401E30
:103DB000E0874FF00109FEF70DFCC01BB04202D3B3
:103DC000701C01D011E086B1E08E0028CED1E08FCA
:103DD0000028CBD13A463146204603F081F950B154
:103DE0002020606584F8508012E084F851A084F8A7
:103DF0005080032068E7A06818B92068C16880680F
:103E0000009084F851A084F85080606D0028F1D0B3
:103E1000012059E77047704710B590F83C20012AFF
:103E200022D0012280F83C20CA688C6822F44072BB
:103E300022434C6822F4806222430C6822F4006220
:103E400022430C6922F4805222434C6922F400522E
:103E50002243C969002322F480420A4301684A646C
:103E600080F83C30002010BD022010BD70B590F8E5
:103E70003C20012A32D0012480F83C40022280F804
:103E80003D2003685A689D6822F070060A68324334
:103E90005A60134B02689A4214D0B2F1804F11D08D
:103EA000104B9A420ED0104B9A420BD00F4B9A42B5
:103EB00008D00F4B9A4205D00E4B9A4202D00E4BBF
:103EC0009A4204D1496825F080031943916080F833
:103ED0003D40002180F83C10084670BD022070BDB6
:103EE000000001400004004000080040000C0040B9
:103EF00000040140004001400018004010B50400DB
:103F000003D094F83D0010B107E0012010BD00205F
:103F100084F83C00204600F01FF8022084F83D00A1
:103F2000211D206803F020FB012084F8460084F85E
:103F30003E0084F83F0084F8400084F8410084F893
:103F4000420084F8430084F8440084F8450084F873
:103F50003D00002010BD000008B5006811498842EE
:103F600009D11148016841F400310160006800F492
:103F70000030009008BD0D498842FBD10A48001F5F
:103F8000016841F0800101600068002200F08000BB
:103F9000009005212C20FEF763FEBDE808402C2090
:103FA000FEF750BE0044014044380240001C00406F
:103FB00090F83D10012901D001207047022180F8BE
:103FC0003D100168CA6842F00102CA6000681149E8
:103FD000884214D0B0F1804F11D00F4988420ED0E2
:103FE0000E4988420BD00E49884208D00D498842BC
:103FF00005D00D49884202D00C49884204D181681D
:1040000001F00701062903D0016841F001010160B8
:1040100000207047000001400004004000080040FC
:10402000000C004000040140004001400018004026
:1040300070472DE9F04104460068C66805694FF0F5
:104040000007A90713D5B10711D5F91E0161012099
:104050002077206880698007204602D0FFF7E8FFBC
:1040600004E000F0C1F8204600F066F92777680701
:1040700016D5700714D521686FF00400086102207E
:1040800020772068806910F4407F204602D0FFF737
:10409000CFFF04E000F0A8F8204600F04DF92777A4
:1040A000280715D5300713D521686FF0080008617F
:1040B000042020772068C0698007204602D0FFF7DF
:1040C000B7FF04E000F090F8204600F035F92777BC
:1040D000E80616D5F00614D521686FF010000861C7
:1040E000082020772068C06910F4407F204602D065
:1040F000FFF79EFF04E000F077F8204600F01CF97F
:104100002777E80708D0F00706D021686FF0010094
:104110000861204600F012F9280608D5300606D5B9
:1041200021686FF0800008612046FFF773FE680683
:1041300008D5700606D521686FF04000086120465A
:1041400000F006F9A8060AD5B00608D521686FF078
:10415000200008612046BDE8F041FFF75CBEBDE8E5
:10416000F081000010B586B0044614216846FCF7C3
:104170002AFA2368174C002117480222A34211D1C2
:10418000036843F010030360006800F0100005901E
:1041900010020090CDE901210120CDE9031069460C
:1041A0000E4813E00E4CA34212D1036843F02003E3
:1041B0000360006800F02000059040200090CDE9E9
:1041C00001210320CDE9031069460648FEF704F9F2
:1041D00006B010BD0000014030380240001002401F
:1041E0000044014000140240704770B5044690F846
:1041F0003C0000260D4601280FD0012084F83C0029
:104200006AB1042A1DD0082A2FD00C2A3FD00126DB
:10421000002084F83C00304670BD022070BD20684C
:1042200003F00EFA2068816941F00801816120687D
:10423000816921F004018161206881692A69114343
:1042400011E0206803F02CFA2068816941F40061D4
:1042500081612068816921F48061816120688169C0
:104260002A6941EA02218161D2E7206803F04EFA0F
:104270002068C16941F00801C1612068C16921F06D
:104280000401C1612068C1692A69114311E02068F5
:1042900003F070FA2068C16941F40061C1612068CF
:1042A000C16921F48061C1612068C1692A6941EA5C
:1042B0000221C161ACE710B5040003D094F83D00C1
:1042C00010B107E0012010BD002084F83C0020461A
:1042D00000F01EF8022084F83D00211D206803F044
:1042E00043F9012084F8460084F83E0084F83F003A
:1042F00084F8400084F8410084F8420084F84300C8
:1043000084F8440084F8450084F83D00002010BD86
:1043100008B500680649884208D10648016841F09E
:1043200001010160006800F00100009008BD00007C
:104330000000014044380240704700000068034913
:10434000884201D1FEF7F4BB704700000010004026
:104350007047704710B504460068406994F84110F2
:10436000C0F3C010212911D180B12068143050E869
:10437000001F21F0800140E80012002AF5D1A06B57
:1043800008B1FDF701FE204603F0C2FA206840693B
:1043900094F84210C0F38010222911D180B1206816
:1043A000143050E8001F21F0400140E80012002ABC
:1043B000F5D1E06B08B1FDF7E7FD204603F081FA87
:1043C000002010BD70470000F8B501680446086879
:1043D000CA684B6910F00F0F4FF0000559D003F079
:1043E000010602F49077374365D0C10705D0D105A7
:1043F00003D5616C41F001016164410705D5D9071E
:1044000003D0616C41F002016164810705D5D907D1
:1044100003D0616C41F004016164010707D502F02B
:104420002001314303D0616C41F008016164616C8B
:1044300000293AD0800604D5900602D5204603F024
:1044400075FA20684069616CC0F38010090700D4D8
:1044500060B3204603F035FA20684069400621D554
:104460002068143050E8001F21F0400140E800129D
:10447000002AF5D1E06BA8B16E490165E06BFDF74C
:10448000CCFD002811D0E06B016D01B0BDE8F0401B
:10449000084783060FD593060DD52046BDE8F840A2
:1044A00003F044BA2046FFF78DFFF8BD2046FFF722
:1044B00089FF6564F8BD266B2023012E7DD1C606D9
:1044C0007BD5D60679D508684868009048694FF0D2
:1044D0000206400641D5E16B086840680004000C04
:1044E000E8D0A28D8242E5D9E085C869B0F5807F29
:1044F0002DD020680C3050E8001F21F4807140E876
:104500000012002AF5D12068143050E8001F21F075
:10451000010140E80012002AF5D12068143050E86B
:10452000001F21F0400140E80012002AF5D184F874
:104530004230256320680C3050E8001F21F0100144
:1045400040E80012002AF5D1E06BFDF71DFD66631F
:10455000A08DE18D401A81B22AE0A08DE18D401A34
:1045600081B2E08D0028A5D00029A3D022680C32AA
:1045700052E8000F20F4907042E80007002FF5D1B8
:104580002068143050E8002F22F0010240E8002794
:10459000002FF5D184F84230256320680C3050E8B4
:1045A000002F22F0100240E80023002BF5D16663B3
:1045B0002046FFF7CEFEF8BDFFE705062BD5150612
:1045C00029D594F841002128F5D1A068B0F5805F85
:1045D00001D12069B0B1206A411C216221680078B4
:1045E0004860E08C401E0004000CE084E3D12068A9
:1045F000C16821F08001C1602068C16841F04001BC
:10460000C160D8E7206A0088C0F308004860206ACB
:10461000801C2062E5E74006CDD55006CBD5CA68A0
:10462000204622F04002CA6084F8413000F00EF9C2
:10463000C1E70000C577000870B5040004D094F805
:104640004100002510B106E0012070BD84F8405003
:10465000204600F023F8242084F841002068C16837
:1046600021F40051C160204603F0C2F920680169BD
:1046700021F4904101612068416921F02A014161E2
:104680002068C16841F40051C1606564202084F84D
:10469000410084F842006563002070BD2DE9F04FB1
:1046A00087B0054614216846FBF78DFF564B2968F5
:1046B000564802260322072700244FF4807B4FF040
:1046C00000694FF4806A994267D1504914310B68F0
:1046D00043F010030B60096801F0100105910168B7
:1046E00041F002010160016801F0020105910168D9
:1046F00041F0010101600068CDE9024200F00100D3
:1047000005908020CDE90006904669460497404810
:10471000FDF762FE3002CDE90006CDE902486946A8
:1047200004973C48FDF758FE3C4E3B484F463060EE
:10473000C6E90194C6E9034A7461B461F461346264
:10474000D04630467462FDF74BFD08B1FCF7DCFE45
:10475000EE63B563314E304860363030E6E802072C
:104760004020A6E811012D4846F814496030C6E9FA
:10477000064B34627462FDF733FD08B1FCF7C4FEEA
:10478000AE63002205212520B563FEF769FA2520D6
:10479000FEF758FA07B0BDE8F08F214B9942F9D1E6
:1047A0001A4910310B6843F480230B60096801F447
:1047B00080210591016841F0040101600068CDE9A4
:1047C000024200F0040005904FF44060CDE900067D
:1047D000694604971348FDF7FFFD104E1248C03696
:1047E0003060C6E90194C6E9034A7461C6E9064B24
:1047F000346230467462FDF7F3FC08B1FCF784FEC6
:10480000EE63B563C6E70000001001403038024097
:104810000004024000000240886402406C0900204D
:1048200000480040000802402860024090F84230F2
:10483000202B01D00220704721B11AB1002303635D
:1048400003F05CB901207047704770477047FEE77E
:1048500001684A69D24352050FD46FF480624A61FD
:10486000002140F8301F202242738173026942F018
:1048700004020261017301207047002070470000AC
:104880002DE9F84F0446006889460B9D016898465B
:10489000174641F4806101602068016841F480712D
:1048A000016000954FF0011B0022594620460A9BEB
:1048B00000F0E4F84FF4007A40B120680068C005C9
:1048C00001D5C4F840A00320BDE8F88F216809F0A5
:1048D000FE0008612B46284920460A9A00F016F986
:1048E000F0BB20684169806900902A4620460A99F9
:1048F00000F0A2F940B1206C04283AD12068016888
:1049000041F40071016034E0FEB2B8F1010F09D04A
:104910002168380A08612A4620460A9900F08CF975
:104920000028E8D1206806612A4620460A9900F04E
:1049300083F90028DFD12068016841F480710160AB
:1049400000950022594620460A9B00F097F800285F
:10495000B3D1216809F0FF0040F00100086100E0D8
:1049600007E02B46044920460A9A00F0CFF80028B9
:10497000AAD00120A8E70000020001002DE9F843B9
:10498000044600680D46DDE908970168984616461A
:1049900041F4807101604B4600224FF00111204626
:1049A000009700F06BF848B120680068C00502D598
:1049B0004FF4007020640320BDE8F883216805F0FF
:1049C000FE0008613B464A461549204600F09EF825
:1049D00088B920684169806900903A464946204676
:1049E00000F02AF948B1206C042804D1206801683D
:1049F00041F4007101600120DEE7F5B2B8F1010F6A
:104A000009D02168300A08613A464946204600F03C
:104A100013F90028E7D1206805610020CCE70000E9
:104A20000200010070B516460D4604461EE0204601
:104A3000FFF70EFF08B1012070BD681C16D0FDF70E
:104A4000C9FD801BA84200D885B920684069C043D1
:104A500040070BD5002044F8300F20216173A0736C
:104A6000216941F0200121612073E4E72068406959
:104A7000C0434007DBD4002070BD00002DE9F047A3
:104A8000984617460D460446C1F30746DDF82090C8
:104A90002AE000BFB8F1FF3F26D0FDF79BFDA0EB59
:104AA0000901414502D8B8F1000F1DD12068012E3F
:104AB00016D0806925EA00000004000C12D0002006
:104AC000B84211D1002044F8300F20216173A07347
:104AD000216941F02001216120730120BDE8F087A8
:104AE0004069E7E70120EBE72068012E0AD08069E2
:104AF00025EA00000004000C06D00020B842C9D00E
:104B00000020EBE74069F3E70120F7E72DE9F047E4
:104B1000984616460D4604464FF000094FF0200A0D
:104B2000C1F3074723E020684069C043400515D41E
:104B30002068016841F40071016021686FF48060B1
:104B40004861C4F8309084F83DA084F83E90216C10
:104B500041F00401216484F83C9021E0701C06D0EF
:104B6000FDF738FDA0EB0800B04203D816B1012FC5
:104B70001FD021E02068012F15D0806925EA0000B0
:104B80000004000C18D000BF44F8309F84F80DA03A
:104B900084F80E90216941F02001216184F80C9085
:104BA0000120BDE8F087406925EA00000004000C00
:104BB000EAD12068406901E02068806925EA0000A8
:104BC0000004000CAFD1ECE72DE9F0410025904640
:104BD0000E460446202728E04069C043C0060CD496
:104BE00054F8301B6FF01000486144F81059677793
:104BF000A577206A2062257714E0FDF7EBFCA0EB97
:104C00000800B04200D886B920684069C043400619
:104C10000BD544F8305F6773A573206940F020001E
:104C2000206125730120BDE8F08120684169C943F6
:104C30004906D1D40020F6E770B516460D46044665
:104C40001EE02046FFF704FE08B1012070BD681C7D
:104C500016D0FDF7BFFC801BA84200D885B920689C
:104C60004069C04300060BD5002044F8300F2021D6
:104C70006173A073216941F0200121612073E4E791
:104C800020684069C0430006DBD4002070BD0000EE
:104C900010B502E0642005F021FDFBF7B5FD00280A
:104CA000F8D102E0642005F019FD05F097FC00281A
:104CB000F8D12D4AA2F11004211D101DFBF7BCFDF7
:104CC000DFED2A1A9FED2A1ADFED2A0AB0EE613ACB
:104CD000F0EE612AB0EE612A9FED270A274A0021F3
:104CE00004F14C0005F062FE04F12802211DA2F13E
:104CF0005C00FBF7DBFCA4F14C0094ED010AA0F191
:104D00000C0180ED000AA0F1180281ED000A82ED8D
:104D1000000A94ED020A80ED010A81ED010A82ED9C
:104D2000010A94ED030A80ED020A81ED020A82ED88
:104D3000020A002005F008FD06F052FF0F4C104952
:104D4000543CA0621020C8610846FEF781FE08B1FD
:104D5000FCF7DAFB094908221439A1F1080002F036
:104D600047F90120207110BD3C4F002000000000D9
:104D7000E6B1617F0080894500A08C4520010020BC
:104D8000EC06002008B50026FFF782FF4C4F4FF0DD
:104D9000FF3907F1140A4B4CA7F1240806F070FF05
:104DA0004D4600902946012006F0F0FB0128F9D17C
:104DB000607908B9761CB6B2607930B9B6F5FA7F79
:104DC00003D9012060714FF42F762078400708D571
:104DD000207820F0040020703A4851464130FBF71B
:104DE000E3FC607840070AD5607820F0040060702A
:104DF000334A391D2032A2F12A00FBF78FFCA0783C
:104E000040070DD5A07820F00400A0702C492D4853
:104E100010312E30FBF7EAFD97ED040A05F0ECF9AE
:104E2000274B51462833A3F174029FED270A02F164
:104E30001800FBF74BFC224B45461C3BA3F1080135
:104E40002A1DA1F1100005F0FBF8FDF7C3FB60631C
:104E5000616961B1411A00EE101A94ED041AF8EE7E
:104E6000C00A94ED0C0A01EE200A84ED0C0AD5ED7F
:104E7000000A9FED160A124960EE801ADFED140A4F
:104E8000183981EEA01AD4ED0C1A31EE211A81EDF9
:104E9000001A95ED011A21EE001AC1EE201AC1ED9B
:104EA000011A95ED021A21EE000A80EE201A81ED1A
:104EB000021A60610121684606F0B4FC6EE700004A
:104EC0002C4F0020CC0000206F12833A00003443A6
:104ED000DB0F494010B504460068416941F04001CC
:104EE00041612068416941F0800141612068C168E9
:104EF00041F01001C1604FF4FA620A492046FFF701
:104F000095FC03E0016821F001010160A06B0068DD
:104F10000168C907F6D1A16B20680968001D886087
:104F200010BD0000185200202DE9F05F04004FF082
:104F300000070ED0A54D2068A54E28602079287165
:104F4000B4F80100A5F801002878B846A52803D0D8
:104F500037E10120BDE8F09F0521204603F020FE47
:104F60004FF0010B012869D1B5F801102046093135
:104F700003F0F8FD0128F6D19448B4F80510012794
:104F80008030A5F80510B1F5017F77D028DCB1F5A8
:104F9000817F7AD010DC042959D006DC01293FD06A
:104FA00002294CD0032949D14CE0052957D0A1F55D
:104FB0008071013942D163E040F20122A1F2012067
:104FC000914271D007DCB1F5827F63D0A1F5807189
:104FD000053933D163E0012879D002282ED17BE056
:104FE00040F20B2CA1F20B2304F10D0A61456AD0AB
:104FF00008DCA1F20521062920D2DFE801F075784E
:1050000087969BA0DFF8C491F63B09F1CF0909F11F
:105010003100052B12D2DFE803F09AA3A7ABB6004C
:10502000D4F80700C5F80700D4F80B00C5F80B004A
:10503000B4F80F00A5F80F00607C6874B4E0E07964
:10504000A874B1E061482022E11D1330AAE0B4F851
:105050000700A5F83300607A85F83500A4E0D4F89D
:105060000700C5F83600D4F80B00C5F83A00B4F8CC
:105070000F00E887607C85F8400095E031E004E0AF
:10508000D4F80700C5F841008EE0D4F80700C5F851
:10509000450089E0B4F80700A5F8490084E0E0790C
:1050A00085F84B0080E0FFE748481B22E11D4C30AB
:1050B000FBF7F0F995F84C007071642804D286F87B
:1050C000048071E003E069E0642030716CE03F48E7
:1050D0001022E11D673065E03C481022E11D773069
:1050E00060E0E179C1715FE0E17901725CE0E17952
:1050F0004172584686F802B0090902D086F801804C
:1051000052E070703089401C30814DE0D4F80710B7
:10511000C0F80A10B4F80B10C181617B01742C49EE
:10512000D5F88D00183108603EE0D4F8071040F83B
:10513000111F08E0D4F80710C0F8171034E0D4F8B5
:10514000071040F81B1FB4F80B1081802CE01F489B
:105150001422E11DC930FBF79DF93622514601E0CA
:105160001422E11D48461DE00F225146194819E05E
:10517000D4F80D1040F8431FD4F811104160D4F852
:105180001510816010E0D4F80D1040F84F1FD4F8CE
:1051900011104160B4F81510018105E00D48282276
:1051A00051469338FBF776F9B5F801000934015DF3
:1051B000A52902D12044FFF7B7FE17B186F800B049
:1051C00001E086F800803846C4E600004C5000201C
:1051D0009401002080510020B4EEE00AF1EE10FAB4
:1051E00002D2B0EE600A7047B4EEC10AF1EE10FAD6
:1051F000F9DDB0EE410A70470F4810B50D49016066
:105200000321416000214FF410228160C0E90312A4
:105210004FF400124261017641768176C1760177C2
:105220004177FCF768FC002803D0BDE81040FCF78C
:105230006BB910BD00640040480600200F4810B54F
:105240000D4901600321416000214FF4102281606B
:10525000C0E903124FF40012426101764176817673
:10526000C17601774177FCF746FC002803D0BDE802
:105270001040FCF749B910BD0068004070060020DE
:10528000074910B5054808600846FCF758FE002895
:1052900003D0BDE81040FCF737B910BD0030024024
:1052A0001C0000201D4808B5016841F48001016020
:1052B000016801F480010091016841F4001101606E
:1052C0000068002200F40010009005210C20FDF77A
:1052D000C7FC0C20FDF7B6FC002205213A20FDF7A3
:1052E000BFFC3A20FDF7AEFC002205213B20FDF774
:1052F000B7FC3B20FDF7A6FC002205214420FDF76A
:10530000AFFC4420FDF79EFC002205214620FDF75E
:10531000A7FCBDE808404620FDF794BC30380240A9
:1053200010B596B01C2211496846FBF7F8F8002129
:10533000684605F0DFF90E4C0C491C2220601C3138
:1053400007A8FBF7ECF8002107A805F0D3F90749F7
:1053500060601C2238310EA8FBF7E1F800210EA88E
:1053600005F0C8F9A06016B010BD000020CA000802
:105370000C0000202DE9F04F87B014216846FBF7A0
:1053800022F96E480025016841F0020101600168C0
:1053900001F002010591016841F00101016001681D
:1053A00001F001010591016841F008010160016807
:1053B00001F008010591016841F0040101600168F4
:1053C00001F004010591016841F08001016001686C
:1053D00001F080010591016841F020010160016840
:1053E00001F020010591016841F040010160016870
:1053F00001F040010591016841F010010160006871
:10540000DFF83C8100F010004FF48074059000221A
:1054100021464046FDF7D8F8DFF8289101224021C7
:105420004846FDF7D1F8DFF820B14FF4E0570022ED
:1054300039465846FDF7C8F8DFF810A101221021BF
:105440005046FDF7C1F8012211464148FDF7BCF86E
:1054500000940124694640460194CDE90245FCF7D9
:10546000BBFF02204FF48816CDE90006694602957D
:105470003848FCF7B1FF4020CDE9000402946946AA
:1054800048460394FCF7A8FF0097CDE9014569461B
:1054900058460395FCF7A0FF0820CDE900066946B1
:1054A00002944846FCF798FF10208DE831006946C9
:1054B00050460395FCF790FF3020CDE90006694681
:1054C00002944046FCF788FFCDE90046694648460D
:1054D0000295FCF781FF0094CDE9014569461C481F
:1054E0000395FCF779FF062100220846FDF7B8FB7B
:1054F0000620FDF7A7FB002205210720FDF7B0FBE2
:105500000720FDF79FFB002205210920FDF7A8FBDE
:105510000920FDF797FB002205210A20FDF7A0FBDB
:105520000A20FDF78FFB002205211720FDF798FBCD
:105530001720FDF787FB07B0BDE8F08F3038024039
:105540000008024000180240001C02400000024017
:1055500000040240001402400D4810B50B490160E0
:105560000C49416000214FF480428160C0E9031280
:1055700041618161C1610162FDF732F8002803D009
:10558000BDE81040FBF7C0BF10BD0000005C00404C
:1055900098060020801A0600104810B50E490160D8
:1055A0004FF482714160002102228160C0E9031240
:1055B00001224261520282613822C0E90721416220
:1055C00081620A21C162FEF743FA002803D0BDE8D8
:1055D0001040FBF799BF10BD00300140EC060020E1
:1055E00010B588B01C216846FAF7EDFF144813493E
:1055F0000024C0E9001441F28731C0E9024104618E
:105600008461FEF77BFC08B1FBF77EFF0C48FEF7D8
:1056100052FE08B1FBF778FF6020CDE90004029448
:105620000022694606480494FEF7DFFD08B1FBF747
:105630006BFF0348FEF796FD08B010BD0044014023
:105640004C0800200C4810B50A49016042F2CF0115
:105650004160002142F20F72C0E9021201618161D2
:10566000FEF74CFC002803D0BDE81040FBF74CBF10
:1056700010BD0000001C00409408002010B592B03E
:1056800000240F941C2108A81094FAF79CFF2021F5
:105690006846FAF798FF21481F49016040F28F6180
:1056A000C0E9011440F2CF71C0E903144461846180
:1056B000FEF701FE08B1FBF727FF0F940FA917486B
:1056C0001094FEF7D3FB08B1FBF71EFF6020CDE975
:1056D00008040A940B940C940D94002208A90F4816
:1056E0000E94FEF782FD08B1FBF70EFF00944FF415
:1056F0000050CDE9044002940194039469460748A0
:105700000794FEF789FB08B1FBF7FEFE0348FEF79E
:1057100029FD12B010BD0000000001400408002067
:105720000C4810B50A4901604FF4E1314160002195
:1057300081600C22C160C0E904128161C161FEF781
:105740007BFF002803D0BDE81040FBF7DDBE10BD95
:1057500000100140DC0800200E4810B50C49016023
:105760000D4941604FF48051816000214FF4806207
:10577000C0E903120C22C0E90521C161FEF75CFFFC
:10578000002803D0BDE81040FBF7BEBE10BD0000EE
:105790000048004024090020A0860100F5EEC01A50
:1057A000B0EE413AF0EE603AB0EE404AF1EE10FA57
:1057B00000B5024609D1B5EEC02AF1EE10FA04D1C7
:1057C000F5EEC02AF1EE10FA78D021EEA10A02EE31
:1057D000020A02EEA20A04F0B1FE21EE805A62EE45
:1057E000004A92ED011AD2ED030A22EE800AD2EDB0
:1057F000002A21EE202AD2ED021A22EE811A5C48FC
:1058000002EEE12A01EEA01AF6EE001A52EEA21AFA
:1058100040EEA01A60EE020A64EEA12A45EE610A8B
:1058200040EE412A25EE010A90ED011A04EEC20A6B
:10583000B5EEC01AF1EE10FA2CDD90ED011AD0EDA4
:10584000021A21EE222A9FED4B1A42EE011AC0EDF8
:10585000021AD0ED011A21EEA02AD0ED031A42EE71
:10586000011AC0ED031AD0ED011A21EE802AD0ED05
:10587000041A42EE011AC0ED041A90ED021A34EE39
:10588000014A90ED031A73EE813A90ED041A33EE5B
:10589000013A07E09FED381A80ED021A80ED031AF5
:1058A00080ED041A90ED001A01EE224A90ED001AE4
:1058B00041EE203AD0ED000A00EE803A9FED2F0A2B
:1058C000D2ED021A24EE002A63EE802A23EE001A9B
:1058D00092EC020A92ED033A60EEC23A41EEE23AED
:1058E00043EE413A73EE804A60EE023AC2ED004A5E
:1058F00041EE813A43EE623A33EEA04A60EE223A3C
:1059000020EE010A82ED014A40EEC13A00EEA20A01
:1059100043EE023A01EEC20A73EEA13A70EE030AB8
:1059200024EEA40AC2ED023AC2ED030A04EE040A10
:1059300003EEA30A00EEA00A04F000FED2ED000A76
:1059400060EE800AC2ED000AD2ED010A60EE800A24
:10595000C2ED010AD2ED020A60EE800AC2ED020A2F
:10596000D2ED030A20EE800A82ED030A00BD00009A
:105970002C0100206F12833A000000006F12033ADE
:10598000FEE710B588B0044600910021082002917E
:10599000CDE9031088208DF818008DF819108DF8C6
:1059A0001A108DF81B100791012306AA694620469C
:1059B000FBF744FE022306AA69462046FBF73EFE9B
:1059C000042306AA69462046FBF738FE08B010BD3E
:1059D00000B589B00823029100210491CDE9051397
:1059E000A7238DF800308DF801108DF802108DF886
:1059F00003108DF80420110A8DF80510110C8DF894
:105A00000610110E8DF8071001236A4602A9FBF754
:105A100015FE09B000BD00B589B008230291002130
:105A20000491CDE90513A2238DF800308DF8011003
:105A30008DF802108DF803108DF80420110A8DF8EE
:105A40000510110C8DF80610110E8DF807100123AA
:105A50006A4602A9FBF7F2FD09B000BDFEE70000AF
:105A60000148FDF727BA0000F40C00202DE9F041B1
:105A700003680D4604461E6C03EB4511D1F8080B74
:105A800094F806E04FF400474FF0200C04F29C42DB
:105A9000BEF1010F09D0DFF898E0764539D1020454
:105AA00032D500BFC1F8087B3FE0224B5FEA007EA1
:105AB00004D59E4239D90004F4D436E05FEA806E02
:105AC00002D5C1F808CB30E010F0280F2DD19E424E
:105AD00001D90004E6D405EBC50004EB8000D1F841
