:020000040800F2
:10000000586D00202903000867590008FB440008C8
:10001000255700082D0A0008E99500080000000097
:10002000000000000000000000000000690200085D
:10003000CD0B000800000000C5020008B9730008DD
:100040004303000843030008430300084303000878
:100050004303000843030008CF0B0008D50B00083A
:1000600043030008DB0B0008E10B00084303000812
:10007000D50A0008430300084303000843030008AF
:100080004303000843030008430300084303000838
:10009000310A00084303000843030008E70B000887
:1000A0004303000843030008430300084303000818
:1000B0004303000843030008430300084303000808
:1000C00043030008430300084303000843030008F8
:1000D00043030008C57A00084303000843030008EF
:1000E00043030008430300084303000843030008D8
:1000F0009574000843030008430300084303000805
:1001000043030008430300084303000843030008B7
:1001100043030008430300088974000843030008F0
:100120004303000843030008F10A0008050B000818
:100130004303000843030008430300084303000887
:100140003D0A0008430300084303000869590008FA
:10015000110B0008430300081D0B000843030008AF
:100160004303000843030008430300084303000857
:100170004303000843030008430300080000000095
:10018000430300084303000800F002F800F05CF8A5
:100190000AA090E8000C82448344AAF10107DA45E2
:1001A00001D100F051F8AFF2090EBAE80F0013F0D8
:1001B000010F18BFFB1A43F001031847D0CB000012
:1001C000F0CB00000A444FF0000C10F8013B13F094
:1001D000070408BF10F8014B1D1108BF10F8015BA0
:1001E000641E05D010F8016B641E01F8016BF9D193
:1001F00013F0080F1EBF10F8014BAD1C0C1B09D1EA
:100200006D1E58BF01F801CBFAD505E014F8016B5B
:1002100001F8016B6D1EF9D59142D6D370470000ED
:100220000023002400250026103A28BF78C1FBD8FF
:10023000520728BF30C148BF0B6070471FB50CF094
:100240002AFD1FBD10B510BD00F0FAF91146FFF7E9
:10025000F5FF0AF081FB00F018FA03B4FFF7F2FF94
:1002600003BC00F01BFA00002C4B19680868B0E8CA
:10027000F04F80F30988BFF36F8F4FF0000080F3D9
:10028000118870470000000008480068006880F38B
:1002900008884FF0000080F3148862B661B6BFF39F
:1002A0004F8FBFF36F8F00DF00BF00BF08ED00E08E
:1002B000DFF80C00016841F470010160704700BF75
:1002C00088ED00E0EFF30980BFF36F8F134B1A68DE
:1002D0001EF0100F08BF20ED108A20E9F04F1060CB
:1002E00009B44FF0500080F31188BFF34F8FBFF374
:1002F0006F8F0BF0C7FB4FF0000080F3118809BC33
:1003000019680868B0E8F04F1EF0100F08BFB0EC95
:10031000108A80F30988BFF36F8F70479000002028
:10032000EFF30580704700000948804709480047FF
:10033000FEE7FEE7FEE7FEE7FEE7FEE7FEE7FEE795
:10034000FEE7FEE704480549054A064B70470000F2
:10035000797400088901000858670020586D002052
:10036000586900205869002053EA020C00F06980A7
:100370002DE9F04B4FF00006002B1FBFB3FA83F5B9
:1003800003FA05F424FA05F65E4012BF1643B2FAEA
:1003900082F502FA05F4C5F120051EBF22FA05FC1C
:1003A00044EA0C04203556EA044C4FEA144418BFC2
:1003B000641C4FF000084FF00009904271EB030CF1
:1003C00039D3002919BFB1FA81F701FA07F6B0FA5B
:1003D00080F700FA07F6C7F120071EBF20FA07FCD6
:1003E00046EA0C062037B6FBF4FCA7EB0507103FE6
:1003F00007F01F0BCBF120060CFA0BFB2CFA06F6CC
:1004000044BFB3460026202FA4BF5E464FF0000B2A
:100410005BEA060C08BF4FF0010B19EB0B09ABFBB5
:10042000027C48EB0608C01B06FB02CC0BFB03CC8E
:1004300071EB0C01C1E70B46024641464846BDE858
:10044000F08B13B54FF000004FF00001AFF30080C8
:10045000BDE81C40704710B5431C02E010F8011BBA
:1004600071B18107FAD14FF0013202C88C1A8C4366
:1004700014EAC211F9D0C01A0A0603D0C01E10BD7A
:10048000C01A10BD0A0401D0801E10BD0902FCD0A4
:10049000401E10BD032A40F2308010F0030C00F023
:1004A000158011F8013BBCF1020F624498BF11F8AE
:1004B00001CB00F8013B38BF11F8013BA2F1040267
:1004C00098BF00F801CB38BF00F8013B11F00303DF
:1004D00000F02580083AC0F0088051F8043B083A43
:1004E00051F804CBA0E80810F5E7121D5CBF51F8E5
:1004F000043B40F8043BAFF30080D20724BF11F85F
:10050000013B11F801CB48BF11F8012B24BF00F8C3
:10051000013B00F801CB48BF00F8012B704710B534
:10052000203AC0F00B80B1E81850203AA0E81850EB
:10053000B1E81850A0E81850BFF4F5AF5FEA027CAC
:1005400024BFB1E81850A0E8185044BF18C918C01B
:10055000BDE810405FEA827C24BF51F8043B40F8BC
:10056000043B08BF7047D20728BF31F8023B48BFA1
:1005700011F8012B28BF20F8023B48BF00F8012BDF
:1005800070474FF000020429C0F0128010F0030CF5
:1005900000F01B80CCF1040CBCF1020F18BF00F876
:1005A000012BA8BF20F8022BA1EB0C0100F00DB825
:1005B0005FEAC17C24BF00F8012B00F8012B48BF83
:1005C00000F8012B70474FF0000200B51346944627
:1005D0009646203922BFA0E80C50A0E80C50B1F19B
:1005E0002001BFF4F7AF090728BFA0E80C5048BFAF
:1005F0000CC05DF804EB890028BF40F8042B08BF4D
:10060000704748BF20F8022B11F0804F18BF00F848
:10061000012B704770477047704710B500F008F81D
:10062000006810BD10B5044600F002F8046010BD6B
:1006300000487047F866002000487047F8660020C0
:100640007546FFF7F9FFAE4605006946534620F0B0
:100650000700854618B020B5FFF774FEBDE82040BE
:100660004FF000064FF000074FF000084FF0000B6E
:1006700021F00701AC46ACE8C009ACE8C009ACE821
:10068000C009ACE8C0098D46704710B50446AFF309
:1006900000802046BDE81040FFF7DFBD014918206B
:1006A000ABBEFEE72600020070470000B7EE000A6E
:1006B00080ED000A9FED040A80ED010A80ED020A38
:1006C00080ED030A7047000000000000D2EC031A1E
:1006D00091EC030A04F034BF01221021014801F01B
:1006E000D3BC00000000024000221021014801F0AC
:1006F000CBBC000000000240704700000122114600
:10070000014801F0C1BC00000004024000220121A8
:10071000014801F0B9BC00000004024030B5437844
:1007200004781B021BB2234300EE103A194CB8EEBA
:10073000C00AD4ED000A20EE200A81ED000AC37839
:1007400085781B021BB22B4300EE103AD4ED000A51
:10075000B8EEC00A20EE200A81ED010A437904793F
:100760001B021BB2234300EE103AB8EEC00A20EE83
:10077000200ADFED090A81ED020AD0F8060020F018
:100780007F4000EE100AB8EE400A20EE200A82ED0B
:10079000000A30BD8801002000401C4270470AF06A
:1007A00079B901200AF076B910B5427803781202BF
:1007B00012B21A4300EE102A124BB8EEC00AD3ED63
:1007C000010A20EE200A81ED000AC2788478120224
:1007D00012B2224300EE102AD3ED010AB8EEC00A8D
:1007E00020EE200A81ED010A42790079120212B24C
:1007F000024300EE102AB8EEC00A20EE200A81ED76
:10080000020A10BD8801002010B5FFF775FFFFF741
:10081000C5FF09F07BF908B1802402E009F0E2F895
:10082000044609F041FB10B144F0400010BD09F04E
:10083000CDFA204310BD00002DE9FC410746002001
:1008400016460D4600900190FFF74EFF922000F0F3
:10085000BDF806226946122000F09AF8FFF73CFF27
:100860009DF801009DF80010000200B2084300EE60
:10087000100A464CB8EEC00AD4ED000A20EE200A59
:1008800085ED000A9DF803009DF80210000200B2F9
:10089000084300EE100AD4ED000AB8EEC00A20EEBC
:1008A000200A85ED010A9DF805009DF8041000025C
:1008B00000B2084300EE100AB8EEC00A20EE200A8B
:1008C00085ED020AFFF722FF08226946002000F0AA
:1008D0005FF8FFF713FF9DF800000F2830D19DF857
:1008E00003009DF80210000200B2084300EE100A57
:1008F000D4ED010AB8EEC00A20EE200A87ED000A06
:100900009DF805009DF80410000200B2084300EEB7
:10091000100AD4ED010AB8EEC00A20EE200A87EDD5
:10092000010A9DF807009DF80610000200B2084376
:1009300000EE100AB8EEC00A20EE200A87ED020A87
:10094000FFF7D2FEA22000F041F8022269462220E1
:1009500000F01EF8FFF7C0FE9DF800009DF80110A2
:10096000C00040EA5110B0F5806F01DBA0F50060D7
:1009700000EE100AB4EE001AF8EEC00AB3EE070A51
:1009800000EE810A86ED000ABDE8FC8188010020A6
:1009900070B514460D4640F0800000F017F806E0F0
:1009A000552000F013F8641E05F8010BE4B2002C8A
:1009B000F6D170BD10B50C4640F0800000F006F88E
:1009C000552000F003F8207010BD000001B582B082
:1009D0004FF47A700090012301AA02A9024802F0A4
:1009E000AFFF9DF804000EBDF407002002784078A8
:1009F000D20042EA5010B0F5806F01DBA0F5006034
:100A000000EE100AB4EE001AF8EEC00AB3EE070AC0
:100A100000EE810A81ED000A704710B50C46FFF721
:100A2000D5FF2046BDE81040FFF7D0BFFEE700002D
:100A3000014800F078BA000050070020014800F09B
:100A400072BA00007807002000207047002070472D
:100A500010B500220449054807F01AFA0449034872
:100A600007F009FA002010BDB8180020DC0B0020A8
:100A7000B810002070B50D4604460146074807F03F
:100A8000FAF9064807F0D0F9214605482A68FFF729
:100A900001FD03480BF024F8002070BDDC0B0020A2
:100AA000D866002000207047094A10B5D2F8BC2251
:100AB000D2F814220AB1012010BD0A4601460448AA
:100AC00007F0E6F9BDE81040014807F05BBA000006
:100AD000DC0B002010B5044805F010F9BDE810400B
:100AE000024800F047BF000094660020340B00204D
:100AF00010B509F03BFDBDE81040014800F03ABFD9
:100B00004C080020014800F035BF0000AC08002070
:100B1000014800F02FBF0000740A0020014800F0D7
:100B200029BF0000D40A002001681823CAB2103A75
:100B3000B2FBF3F2054B6FF30901032A9B5CC3651B
:100B400000D9091D81650846704700001CCD0008CA
:100B500010B5014600208B698A6A4FF0C07453B10A
:100B6000B3F5005F15D072B1012A0CD0022A0AD069
:100B7000032A09D104E01AB1012A06D0022A03D1BE
:100B8000C96AC90100D5012010BDC96AA142FAD0C5
:100B900010BD002AF7D0012AF2D0022AF3D0032A8E
:100BA000F3D010BD30B50468256825F48025256094
:100BB000046863608368402B036803D09960006811
:100BC000C26030BD9A600068C16030BD70470120CE
:100BD00001F056B9022001F053B9082001F050B9D4
:100BE000102001F04DB9202001F04AB972B6FEE79D
:100BF00090F82020012A07D0022A05D0416A41F44A
:100C00008021416201207047006842690A434261C5
:100C100000207047F0B590F820500468A468012DBA
:100C200005D0022D03D0416A41F480214DE014F03B
:100C3000406F01D1E50045D5C4F301640125A5400D
:100C40001D608D684FF4C0739DB1CE6835434E680A
:100C500045EAC605066803EB0417F5514FF4C27563
:100C6000076805EB04150E697E51097D012905D041
:100C700009E00E88CD6845EA4655EBE701684E5914
:100C800046F480764E511179D2F805504FF4C6766D
:100C900041EA0521056806EB0416A9511178D2F83E
:100CA00001204FF4C47541EA0221026805EB0415E6
:100CB0005151006803EB0411425842F001024250C6
:100CC0000020F0BD416A41F4001141620120F0BDF5
:100CD00010B590F82020012A07D0022A05D0416AD9
:100CE00041F480214162012010BD3B48D0F8002230
:100CF00042F00102C0F80022D0F8002222F47C5217
:100D0000C0F80022D0F800224B6A42EA0322C0F861
:100D100000220A7D02F01F0301229A40D0F81C3203
:100D20009343C0F81C32CB69B3B9D0F80C3293436B
:100D3000C0F80C328C894B6864F31F434C6900EB9C
:100D4000C404C4F840320C890B6864F31F434C6937
:100D500000EBC404C4F84432CB69012B16D1D0F89F
:100D60000C321343C0F80C320C884B6864F31F43F9
:100D70004C6900EBC404C4F840320C89CB6864F3BE
:100D80001F434C6900EBC404C4F844328B69002B48
:100D9000D0F804320ED01343C0F804320B69002B94
:100DA000D0F8143208D01343C0F81432096A01296C
:100DB00004D008E09343EFE79343F5E7D0F81C1223
:100DC0001143C0F81C12D0F8001221F00101C0F844
:100DD0000012002010BD00000064004010B50400A7
:100DE0000ED000F00FFD204600F028FA20680168C0
:100DF00041F4004101600020606284F8200010BDD1
:100E0000012010BD704770B590F82040012C05D02E
:100E1000022C03D0416A41F4802128E0046809B320
:100E20002469A40720D04FF4D874056804EB01149A
:100E30002D5915F00405956005682D591AD0ED0857
:100E4000556005682C5904F00204D4604FF4DA743C
:100E5000056804EB01142E5906F00F06082E0CD37A
:100E600008250DE0E468DCE7416A41F400114162C5
:100E7000012070BD6D0D1560E3E72D5905F00F05DC
:100E8000156105682D59C5F30725956105682C592D
:100E9000240C54614FF4DC72046802EB0112A45874
:100EA0001C700468A458240A5C700468A458240CBC
:100EB0009C700468A258120EDA704FF4DE72046857
:100EC00002EB0112A4581C710468A458240A5C7136
:100ED0000468A458240C9C710468A258120EDA719C
:100EE000006829B1016941F020010161002070BD55
:100EF000C16841F02001C160F8E70246002092F885
:100F00002010012901D002290CD111688A685201F0
:100F100000D501208A68120100D5401C8968C900EB
:100F200000D5401C70472DE9F05F0546006800249D
:100F30004669D0F804908768D0F80CB0D0F810A0BB
:100F4000D0F81880F10748D0F90714D0012181604A
:100F5000B80703D5284600F086FC0CE0780702D5D8
:100F60004FF4006407E0380702D54FF4805402E0E4
:100F7000284600F077FCF80516D529684FF48070F4
:100F80008860B80503D5284600F06FFC0CE07805B2
:100F900002D544F4005407E0380502D544F48044F7
:100FA00002E0284600F060FCF80316D529684FF4EB
:100FB00080308860B80303D5284600F058FC0CE068
:100FC000780302D544F4004407E0380302D544F422
:100FD000803402E0284600F049FC300707D55FEA7C
:100FE000CB6004D52968102044F40074C8607007F1
:100FF0004FF0080707D55FEA0B7004D52868C76073
:10100000284600F0E2F9B00706D52868C0688007D6
:1010100002D0284600F0DAF9700607D55FEACA6008
:1010200004D52968102044F480640861B00607D50F
:101030005FEA0A7004D528680761284600F0B2FB11
:10104000F00606D528680069800702D0284600F01F
:10105000AAFBB00308D55FEAC96005D5296810204E
:101060004860284600F0A0FBF00307D55FEA09704E
:1010700004D528684760284600F0FAFB300446D5BE
:101080005FEA497040D5F00504D55FEAC87001D029
:1010900044F00104B00504D55FEA887001D544F03E
:1010A0000204700504D55FEA487001D544F00404D9
:1010B000300529D518F0700F26D008F070004028B0
:1010C00015D006DC102809D020280AD0302816D1E7
:1010D0000AE050280ED0602811D10EE044F0080438
:1010E0000DE044F010040AE044F0200407E044F06E
:1010F000400404E044F0800401E044F48074286873
:10110000816921F070018161296804204860002C08
:1011100005D0686A204368622846FFF773FEBDE881
:10112000F09F70B5040003D094F8200010B104E0E3
:10113000012070BD204600F0B9F82068016841F038
:101140000101016000F0A6FF0546052604E000F05D
:10115000A1FF401B0A2811D820684068C007F6D0BC
:101160002068016821F00201016000F093FF05464C
:101170000BE000F08FFF401B0A2806D9606A40F49C
:101180000030606284F82060D2E720684068800701
:10119000EFD4207E0128206801683DD021F0800135
:1011A0000160607E01282068016838D021F040018C
:1011B0000160A07E01282068016833D021F0200161
:1011C0000160E07E0128206801682ED041F0100106
:1011D0000160207F01282068016829D021F00801E2
:1011E0000160607F01282068016824D021F004019B
:1011F0000160D4E902010843D4E904121143084311
:101200006168491E08432168C861002060620120AE
:1012100084F82000002070BD41F08001C0E741F05B
:101220004001C5E741F02001CAE721F01001CFE7F6
:1012300041F00801D4E741F00401D9E710B5164A9E
:101240000368144C10681549401EA3420BD110606E
:1012500018B9086820F0007008600321104800F0F9
:101260000DFD142011E00F4CA34212D10B6823F0A6
:1012700080630B60106018B9086820F00070086087
:101280006021094800F0FAFC4020BDE8104001F060
:1012900039BA10BD00640040100000204038024000
:1012A000000C02400068004000040240F0B587B026
:1012B000044614216846FFF786F9364B3648DFF8B6
:1012C000D0E01968D4F800C0334A03250226092764
:1012D00010300024491CF44522D11960012907D19E
:1012E000016841F000710160006800F00070059035
:1012F000106840F0080010601068CDE9005600F05A
:101300000800CDE9047069462448CDE9024500F0A3
:10131000C3FD00220521142001F012FA142032E04E
:10132000DFF87CE0F44530D1D0F800C04CF0806CA0
:10133000C0F800C0D0F800C001290CF0806CCDF8D6
:1013400014C0196007D1016841F0007101600068A4
:1013500000F000700590106840F002001060106806
:1013600002AB00F0020005906020CDE9000683E8A2
:10137000B00069460B4800F08FFD00220521402097
:1013800001F0DEF9402001F0CEF907B0F0BD000019
:10139000006400401000002030380240000C024081
:1013A000006800400004024090F820200021012A3B
:1013B00008D0022A06D0416A41F48021416201210D
:1013C0000846704700224262FAE7704710B50446AB
:1013D0000068EB498AB088424ED16B4602AA0021D0
:1013E0002046FFF710FD029840F20123E549A0F2E4
:1013F000012298420AD004DC012836D002283BD1D1
:1014000035E0012A12D0022A36D120E0BDF80000D2
:1014100040BA4880BDF8020040BA8880BDF8040098
:1014200040BAC8809DF80600087225E0BDF80000AB
:1014300040BA21F84E0FBDF8020040BA4880BDF80E
:10144000040040BA88809DF80600887114E0BDF859
:10145000000041BACC484180BDF8021049BA8180F1
:10146000BDF8041049BAC18006E0012200E0022262
:101470006946C64804F0CAF9C549206888427CD14B
:101480006B4602AA00212046FFF7BDFC029940F2FC
:101490003133C048A1F2313299426FD039DC40F289
:1014A0002133A1F22132994269D010DCA1F580717B
:1014B0001F397DD0222976D0E82975D0A1F5007199
:1014C00001396ED1B3489DF800104030BBE0012ACD
:1014D0006BD0022A6AD0032A69D00F2A61D1AD48A5
:1014E0009DF80010183001709DF801104170801CAB
:1014F0009DF8021001709DF803104170801F9DF847
:10150000041001709DF8051041709DF80610801CB4
:10151000EFE00021302A7BD01CDC012A79D0022A9E
:1015200078D01F2A77D02F2A3BD19A489DF80010F7
:10153000383001709DF8011041709DF802108170E3
:101540009DF80310C1709DF8041001719DF80510FD
:1015500041718BE03F2A70D0402A6FD0412A20D1C0
:101560008C489DF80020323002709DF801204270B6
:10157000821C9DF80230137003E012E089E05EE007
:1015800016E09DF80330537003881088824AA0F15A
:101590001404A34200DD11706438834201DA012093
:1015A00010700AB010BD25E036E063E067E06BE044
:1015B000BDF80010C1F30A01A1F5806141819DF8D9
:1015C00001109DF80220C90841EA4211C1F30A0145
:1015D000A1F5806101819DF803106E4A8B090E32DE
:1015E000C1F3011113705170BDF80410A1F58061B1
:1015F0008181D6E769489DF801100170BDF802109D
:101600004180BDF804108180BDF80610C180C8E794
:10161000A3E055E071E087E0BDF8000041BA604802
:101620008180BDF8021049BAC180BDF8041049BAE2
:1016300001819DF806108172B3E795E098E0554866
:101640009DF80010583001709DF8011041709DF810
:10165000021081709DF80310C1709DF80410017193
:101660009DF8051041719DF8061081719DF80710D5
:10167000C17196E747489DF800104830E3E74548B8
:101680009DF800105030DEE742489DF800106030B1
:10169000D9E740489DF800101C3001709DF80110FA
:1016A0004170801C9DF8021001709DF8031041707C
:1016B000801C9DF8041001709DF80510417070E7C2
:1016C00034489DF80010263001709DF801104170DB
:1016D000801C9DF8021001709DF803104170801F5E
:1016E0009DF8041001709DF8051041709DF80610DA
:1016F000801C01709DF80710E0E726489DF8002047
:101700002A3002709DF801204270801C9DF8022052
:1017100002709DF803204270801C9DF80420027026
:101720009DF80520427013E09DF800204270194892
:101730009DF80120103002709DF802204270801C3C
:101740009DF8032002709DF8042042708DF805106A
:101750008DF806108DF8071023E79DF800108170B2
:101760009DF80110C1701CE79DF80010017118E789
:1017700008489DF80010303001709DF801109DE779
:1017800000640040C0650020B003002058660020BF
:101790000068004040020020CC02002070040020BD
:1017A00024030020704770477047000070B504465E
:1017B00090F82000012804D0606A40F400206062A4
:1017C00018E0022084F820002068016821F001015F
:1017D000016000F05FFC05460EE000BF00F05AFC1F
:1017E000401B0A2808D9606A40F400306062052076
:1017F00084F82000012070BD20684068C007EDD14A
:10180000606270BD70B5044690F82000022804D0D4
:10181000606A40F48010606214E02068016841F062
:101820000101016000F036FC05460DE000F032FCDD
:10183000401B0A2808D9606A40F400306062052025
:1018400084F82000012070BD20684068C007EDD0FA
:101850002068016821F002010160012084F8200065
:10186000002070BD704770477047704770477047E1
:10187000704710B5040002D0607910B106E0012075
:1018800010BD00202071204600F004F80120607196
:10189000002010BD08B500680649884208D10648F6
:1018A000016841F480510160006800F480500090AC
:1018B00008BD000000300240303802402DE9F04100
:1018C0000446876D00F0E6FB064694F835000025D7
:1018D000022806D08020606584F834500120BDE8DD
:1018E000F0812068016821F01601016020684169DB
:1018F00021F080014161206C08B9A06C20B1206802
:10190000016821F0080101602068016821F00101EF
:1019100001600CE000F0BEFB801B052807D92020E9
:101920006065032084F8350084F83450D7E72068D8
:101930000068C007EED194F85C103F208840B86082
:10194000012084F8350084F834500020C7E790F86F
:101950003510022903D080214165012070470521FF
:1019600080F835100068016821F001010160002055
:10197000704700002DE9F84304464FF00009CDF808
:10198000009063484FF41651A56D0068B0FBF1F765
:101990002E6894F85C10082000FA01F131420FD053
:1019A00021680A6852070BD50A6822F004020A600F
:1019B00094F85C108840A860606D40F0010060659C
:1019C00094F85C104FF0010808FA01F0304208D09A
:1019D00021684969090604D5A860606D40F00200DD
:1019E000606594F85C1004208840304208D021687B
:1019F0000968890704D5A860606D40F0040060653F
:101A000094F85C1010208840304218D02168096892
:101A1000090714D5A86020680168490304D5006847
:101A2000000308D5A16C07E00168C90503D401686B
:101A300021F008010160216C09B12046884794F823
:101A40005C1020208840304231D021680968C906E6
:101A50002DD5A86094F8350005282068016806D0C7
:101A6000490347D5006800031DD4616C1CE021F0D8
:101A7000160101602068416921F080014161206CFC
:101A800008B9A06C20B12068016821F0080101604C
:101A900094F85C103F208840A86084F8358084F872
:101AA0003490216D1FE0E16B09B120468847606DDD
:101AB00000282BD0606DC00714D0052084F83500B5
:101AC0002068016821F0010101600098401C00902D
:101AD000B84203D820680068C007F6D184F8358082
:101AE00084F83490E16C002910D001B02046BDE8A4
:101AF000F04308470168C905D5D4016821F01001F9
:101B0000016084F8358084F83490CCE7BDE8F88330
:101B10008C0000202DE9F041044600F0BBFA064697
:101B20005CB1022084F83500002584F83450206828
:101B3000016821F0010101600DE00120BDE8F081A4
:101B400000F0A8FA801B052805D920206065032035
:101B500084F83500F2E720680068C007F0D12268F9
:101B6000116820480140D4E901031843D4E9033641
:101B70003343184363691843A3691843E36918435F
:101B8000236A18430843616A042903D1D4E90B137B
:101B900019430843106020684069666A20F0070115
:101BA00030460E43012704280CD1A06A0643E06AA0
:101BB00040B12046FEF7CCFF20B14020606584F89C
:101BC0003570BAE7206846612046FEF7ADFF94F80D
:101BD0005C203F2191408160656584F8357000206C
:101BE000ACE700003F8010F02DE9F0410446866D1F
:101BF00090F83400002501280DD0012084F834002D
:101C000094F835700020012F07D084F834000225A5
:101C10002846BDE8F0810220FBE7022784F83570F2
:101C200060652046FEF7BEFF94F85C103F208840B8
:101C3000B0602068016841F016010160206C20B19D
:101C40002068016841F0080101602068016841F0E6
:101C500001010160DCE7000070B5044600F01AFAEB
:101C60000546601C02D004480078044400F012FAD3
:101C7000401BA042FAD370BD800000202DE9F04F38
:101C80000022DFF838B101264FF00F0906FA02F4FE
:101C900001EA0403A3427DD122F003075F44D7F891
:101CA000088895074FEA157C09FA0CFA0AEA080534
:101CB000DFF80C81404502D14FF0000832E0DFF838
:101CC0000481404502D14FF001082BE0DFF8F88095
:101CD000404502D14FF0020824E0DFF8F080404593
:101CE00002D14FF003081DE0DFF8E480404502D147
:101CF0004FF0040816E0DFF8DC80404502D14FF0D9
:101D000005080FE0DFF8D080404502D14FF006080B
:101D100008E0DFF8C880404502D14FF0070801E035
:101D20004FF0080808FA0CF8A84522D12C4DD5F838
:101D300000C02CEA030CC5F800C005F1040CDCF867
:101D400000509D43CCF80050254D0C35D5F800C00F
:101D50002CEA030CC5F800C02D1FD5F800C02CEAF2
:101D6000030CC5F800C0D7F8085825EA0A05C7F8DB
:101D70000858056857000323BB409D430560D508FC
:101D800000EB8505D5F820C057074FEAD76809FA58
:101D900008F700E00CE02CEA070CC5F820C0C56885
:101DA0009D43C5604568A543456084689C43846045
:101DB000521C102AFFF46AAFBDE8F08F00300140DA
:101DC000000002400004024000080240000C0240F3
:101DD000001002400014024000180240001C0240A3
:101DE000003C014010B5244C10280AD0202811D006
:101DF00008281AD001282AD0022801D10120A07178
:101E000010BD607840F001006070A07840F00100E3
:101E1000A07003E0207840F00100207020790028B5
:101E2000EED0BDE8104008F0E1BAE07840F00100E3
:101E3000E070E07810F00100E070E1D0E07820F090
:101E40000100E070E07840F00200E07010BD0AF0A0
:101E5000BBF90128FAD00849E06B343109F07AFD6A
:101E6000606B0028F2D005494FF080500860BFF346
:101E70004F8FBFF36F8F10BDB401002004ED00E061
:101E8000044910B50A68024202D00860FFF7AAFFB1
:101E900010BD0000143C01402DE9F84FDFF8BCA153
:101EA0000022012503264FF00F090AF1040BAAF1C5
:101EB000040E00BF0B6805FA02F42340A34270D160
:101EC0000F7907F00307012F01D0022F16D1876881
:101ED0004FEA420806FA08FC27EA0C07D1F80CC0C2
:101EE0000CFA08FC4CEA070CC0F808C04768A74386
:101EF0000C79C4F3001494403C4344600C79E443EF
:101F0000A4070AD0C4684FEA420C06FA0CF7BC4397
:101F10008F6807FA0CF72743C7600C7904F00304B5
:101F2000022C12D1D40800EB840CDCF820405707B7
:101F3000FF0E09FA07F824EA0804D1F8108008FA1D
:101F400007F848EA0408CCF8208004684FEA420CFD
:101F500006FA0CF7BC430F7907F0030707FA0CF7F2
:101F6000274307604C6814F4403F70D03C4C27680E
:101F700047F480472760246822F0030704F4804474
:101F80000094384C07EB040CDCF8084897074FEA3C
:101F9000177809FA08F7BC43334FB84202D100273B
:101FA00024E054E0314FB84201D101271EE0304F08
:101FB000B84201D1022719E02E4FB84201D10327C0
:101FC00014E02D4FB84201D104270FE02B4FB84247
:101FD00001D105270AE02A4FB84201D1062705E0C2
:101FE000284FB84201D1072700E0082707FA08F771
:101FF0002743CCF80878DAF800405746D1F804C0F7
:102000009C435FEACC2C00D51C433C60DBF80040CD
:102010005F46D1F804C09C435FEA8C2C00D51C437A
:102020003C60DEF800407746D1F804C09C435FEA8C
:102030008C3C00D51C433C60084F083F3C68D1F8FD
:1020400004C09C435FEACC3C00D51C433C60521C5E
:10205000102AFFF42FAFBDE8F88F0000083C0140C4
:1020600044380240003001400000024000040240B9
:1020700000080240000C0240001002400014024020
:1020800000180240001C02400AB181617047090437
:10209000FBE70000014880687047000080000020D6
:1020A00070B5040025D094F83D00002520B984F8CF
:1020B0003C50204600F052FA242084F83D0020686D
:1020C000016821F0010101602068016841F40041CC
:1020D00001602068016821F40041016001F03EF9CF
:1020E0004D4A6168914201D84C4900E04C49884210
:1020F00001D2012070BD4B492368B0FBF1F15E684D
:1021000026F03F060E435E606368934206D94FF4A3
:10211000967359434FF47A73B1FBF3F12368491C6A
:102120001E6A26F03F06314319626168914210D859
:102130004900401EB0FBF1F2521CC2F30B02042A0C
:1021400001D2042022E0B0FBF1F0401CC0F30B00F0
:102150001CE0A268F2B301EBC10303EB0116431EBE
:10216000B3FBF6F35B1C43F480431B0549D092B3E9
:1021700001EBC10202EB0111401EB0FBF1F0401C6B
:10218000C0F30B0040F4804040F400402168CA696D
:102190004CF6FF739A431043C861D4E9071001431A
:1021A0002068026822F0C00211430160D4E90301F3
:1021B00001432068826848F2FF339A4311438160EB
:1021C000D4E9050108432168CA6822F0FF021043E0
:1021D000C86001E00EE016E02068016841F00101EE
:1021E00001602564202084F83D00256384F83E507A
:1021F000002070BD01EB4106431EB3FBF6F35B1CF0
:10220000B3E70120C2E701EB4101401EB0FBF1F052
:10221000401CC0F30B00B7E7A086010080841E00BD
:1022200000093D0040420F002DE9FF4F83B09A4660
:10223000DDE9118793460446DDF84090FFF72AFF59
:10224000054694F83D00202870D1192301227449D5
:102250002046009502F068FA0028F5D194F83C0079
:10226000012863D0012084F83C0020680168C90778
:1022700003D1016841F0010101602068016821F487
:1022800000610160222084F83D00402084F83E0077
:1022900000262664C4F82490A4F82A80608D208546
:1022A0006048E062CDE9007553465A4620460499DD
:1022B00002F03CF9002879D1208DD0B1012821D03D
:1022C0000228206824D0416980690090208D03286D
:1022D00066D801282BD0544902283B464FF0000213
:1022E000009557D08846204602F01EFA00285DD19E
:1022F0003AE02068416981690091016841F4007108
:1023000001607DE02068016821F480610160F0E7F0
:10231000016821F4806101602068016841F4006176
:102320000160206841698069009069E075E02A4693
:102330003946204602F09EFA88BB54E020680168C6
:1023400041F40071016020680069616A0870606A88
:10235000401C6062218D491E2185618D491E618569
:1023600021680969017042E02068016821F48061F8
:10237000016020680069616A0870606A401C6062E0
:10238000208D401E2085608D401E60853B460022CA
:1023900041460095204602F0C7F900B9CEE705E0B6
:1023A0002A463946204602F065FA18B1012007B0E6
:1023B000BDE8F08F20680069616A0870606A401C9F
:1023C0006062208D401E81B22185608D401E608537
:1023D00020684269D243520712D4032903D101680D
:1023E00021F48061016020680069616A0870606A98
:1023F000401C6062208D401E2085608D401E6085DF
:10240000208D00287FF462AF202084F83D0084F8FE
:102410003E6084F83C600020C9E70220C7E7000066
:10242000020010000000FFFF040001002DE9FF4F33
:1024300083B09A46DDE9119793460446DDF8408063
:10244000FFF728FE054694F83D0020287FD1192388
:10245000012240492046009502F066F9002876D115
:1024600094F83C00012872D0012084F83C002068D8
:102470000168C90703D1016841F0010101602068CA
:10248000016821F400610160212084F83D004020B2
:1024900084F83E0000262664C4F82480A4F82A901C
:1024A000608D20852C48E062CDE9007553465A4680
:1024B0002046049902F0B8F870B930E02A4639464F
:1024C000204602F00FFA58B1206C042804D120688D
:1024D000016841F400710160012007B0BDE8F08F90
:1024E000606A216800780861606A401C6062218D22
:1024F000491E89B22185628D521E62852268536908
:10250000DB435B070BD469B100781061606A401C43
:102510006062208D401E2085608D401E6085208D6C
:102520000028CBD12A463946204602F0D1F80028AF
:10253000CAD154F83D0B016841F4007101602020BC
:1025400004F81E09E67766770020C6E7FFE7022059
:10255000C3E70000020010000000FFFFF0B587B0E5
:10256000044614216846FEF72EF81D49206888426B
:1025700033D11C480024016841F004010160016866
:1025800001F004010591016841F00101016000685A
:10259000122500F0010005904FF40070CDE9000510
:1025A00002AA0326042782E8D00069460E48FFF7F6
:1025B00073FCB801CDE9000502AA694682E8D000A3
:1025C0000A48FFF769FC07481030016841F4000130
:1025D0000160006800F40000059007B0F0BD000045
:1025E000005C004030380240000802400000024019
:1025F00002488168027811448160704780000020A1
:102600000B4810B5016841F400710160016841F4A4
:1026100080610160016841F480710160032000F075
:10262000AFF80F2000F006F800F050F8002010BDC1
:10263000003C024030B505461F4887B000240168C1
:1026400041F010010160006806A900F01000009040
:1026500001A800F05DFE0498A8B100F07FFE4000E4
:102660001649174AB0FBF1F11648491E026040F2C4
:10267000E732C0E90324C0E90114846101F0CCFA17
:10268000040003D015E000F069FEE9E70D4801F011
:102690001DFB04000DD1362000F045F8102D07D2A7
:1026A00000222946362000F04BF80748056000E07C
:1026B000012407B0204630BD4038024040420F00A0
:1026C00000100040940B0020840000200C4882B0D1
:1026D000016841F480410160006800F4804000908E
:1026E0000748001F016841F0805101600068002226
:1026F00000F0805000900F21901E02B000F020B832
:102700004438024000280DDB00F01F0201219140F7
:102710004009800000F1E020C0F88011BFF34F8F26
:10272000BFF36F8F7047002809DB00F01F02012103
:1027300091404009800000F1E020C0F8001170478E
:10274000F0B40E4B1B680C46C3F30223C3F107051C
:10275000042D00D90425191D072901D2002300E00A
:10276000DB1E012606FA05F1491E214099409E40D4
:10277000761E16403143F0BC06F050BF0CED00E071
:10278000064900F0070208684FF6FF03184040EAC8
:102790000220034A10430860704700000CED00E07F
:1027A0000000FA0570470068416200207047F0B5EC
:1027B0000368586A39B19C6A4FF4827600EB14447E
:1027C00000204D1E0AE040EA024098620FE006EB4E
:1027D0008007DF59401C04EB1744C0B2A842F6D36F
:1027E00044EA02404FF4807202EB8101585000200D
:1027F000F0BDD0F8E00405F058BE01EBC10200EBDB
:102800008202D0F8E004126A05F0ADBD01EBC1020E
:1028100000EB8202D0F8E004D2F8602205F0FEBDA1
:10282000D0F8E00405F043BE0A0601F00F0101EB09
:10283000C10100EB810101D5143101E001F51571F1
:10284000006806F01FBD70B504460B0601F00F00CE
:1028500000EBC00104EB81014FF001024FF00005D5
:1028600002D54A75143103E081F8555201F515710E
:10287000087094F89404012808D084F894242068FF
:1028800006F01AFA84F89454002070BD022070BD3E
:1028900070B5044601F00F002279904201D9012061
:1028A00070BD0B0601F00F0101EBC10104EB8101CA
:1028B0004FF001024FF0000502D54A75143103E0D4
:1028C00081F8555201F515718D70087094F89404D3
:1028D000012808D084F89424206806F05FFB84F86F
:1028E0009454002070BD022070BD01F00F0101EB77
:1028F000C10100EB8100D0F8680270472DE9F0417A
:1029000004460F0601F00F0000EBC00104EB81014B
:102910004FF001064FF0000502D54E75143103E06B
:1029200081F8555201F51571C2F30A0208708A60E8
:102930000B714A7802B14883022B00D14D7194F893
:102940009404012809D084F89464206806F006F9FC
:10295000284684F89454BDE8F0810220FBE710B5C6
:1029600001F00F0404EBC40100EB8101C1E99823DD
:102970000023C1F8683281F8553281F854428379D6
:1029800001F51571012B00D1CA618279006806F04A
:102990005DFB002010BD70B504460D4601F00F0030
:1029A0002179884201D9012070BD29064FF0000627
:1029B0004FF0010206D500EBC00104EB81014A751E
:1029C000143107E005EBC50104EB810181F8556284
:1029D00001F515718A70087094F89404012807D0E5
:1029E00084F89424206806F005FB280702D007E04D
:1029F000022070BDA17904F29C42206806F0A2FA80
:102A000084F89464002070BD10B501F00F0404EB4D
:102A1000C40100EB8101C1E9082300238B6201237B
:102A20004B7501F8144F8379012B00D1CA6182796B
:102A3000006806F00BFB002010BD00002DE9FC5FD4
:102A400005680446284606F0B9FC00287DD12068B8
:102A500006F0E0FC002878D0D5F80808C0F30D2077
:102A6000C4F8D404206806F0D5FC800704D520689B
:102A7000416901F002014161206806F0CBFCC1060A
:102A800004F29C40009034D52068816921F0100147
:102A900081612F6A07F00F0000EBC00004EB800695
:102AA000C7F3434006F51576022802D0062811D058
:102AB0001AE047F6F070074216D0C7F30A1217461D
:102AC0002846F16806F0AAFCF0683844F0607069A6
:102AD000384408E008222846009906F09FFC7069F7
:102AE000C7F30A11084470612068816941F0100140
:102AF0008161206806F08EFC00034FF0080B4FF058
:102B0000000A4FF001097CD50026206806F061FC20
:102B1000074674E0F80770D0F1B2206806F072FC46
:102B20008046C00707D005EB4611C1F8089B314627
:102B3000204602F01FFF5FEA087024D505EB46111E
:102B4000C1F808BB2068016C00E023E200EB4610EE
:102B50000191D0F8082BFB4B994205D9110403D5FC
:102B60004FF40041C0F8081B204600F0F6FAF54982
:102B70000198884207D9A079012804D12068012151
:102B8000009A06F0DFF95FEAC86004D505EB46114C
:102B90001020C1F8080B5FEA88701DD5686900062F
:102BA00005D5D5F8040840F48061C5F8041806EB93
:102BB000C60004EB800090F8571200F5157001294B
:102BC00005D180F803A0F1B2204600F0E9F905EB49
:102BD00046110220C1F8080B5FEA886004D505EBB6
:102BE00046102021C0F8081B5FEA884005D505EB98
:102BF00046104FF40051C0F8081B7F08761C002FC8
:102C000088D1206806F006FC40036ED5206806F0E7
:102C1000D9FB0746002666E0F80762D0F1B22068CB
:102C200006F0DEFB8046C00723D006F00F01D5F882
:102C3000342809FA01F18A43C5F8342805EB461116
:102C4000C1F80899A07901280FD106EBC60004EB62
:102C50008000D0E907211144016236B9606A20B9C9
:102C600020680121009A06F06DF9F1B22046FFF7C5
:102C7000C4FD5FEA087003D505EB4611C1F808B939
:102C80005FEAC86004D505EB46111020C1F80809B9
:102C90005FEA486004D505EB46104021C0F80819EA
:102CA0005FEA887016D53146284606F05CFB06EBD5
:102CB000C60004EB8000C17D1430012905D180F8E5
:102CC00003A0F1B2204600F067F905EB461102209F
:102CD000C1F808095FEA086003D53146204602F0D2
:102CE000AFFE7F08761C002F96D1206806F092FB7D
:102CF000002811DAD5F8040820F00101C5F80418FD
:102D000094F8CC0401282BD0204600F00BFA206860
:102D1000416901F000414161206806F07BFB00053C
:102D20000BD5D5F80808C00702D0204600F03EFABF
:102D30002068416901F400614161206806F06AFB86
:102D4000C00467D5D5F8040820F00100C5F80408D0
:102D50001021206806F007FB00214FF67F3220E0AB
:102D600084F8CCA400212046FFF71CFDCFE700BF6C
:102D700005EB4110C0F80829D0F8003923F40013FE
:102D8000C0F80039C0F8082BD0F8003B23F400133A
:102D9000C0F8003BD0F8003B43F00063C0F8003BB4
:102DA000491C20798842E3D8D5F81C0840F001116D
:102DB000C5F81C18E07B002828460DD0D0F8840800
:102DC00040F00B01C5F88418D5F8440840F00B0119
:102DD0002846C5F844180DE0D0F8140842F22B013B
:102DE0000843C5F81408D5F8100840F00B01284630
:102DF000C5F81018D0F8000820F4FE61C5F80018D6
:102E0000A1792068009A06F09DF82068416901F4D4
:102E100080514161206806F0FDFA800415D52068D4
:102E200005F0DCFE206806F0BCFAE07100F090FAD4
:102E30000146E279206806F04FFB204600F05CF97D
:102E40002068416901F400514161206806F0E2FA0E
:102E5000000707D5204600F069F92068416901F0B4
:102E600008014161206806F0D5FA000616D5A86968
:102E700020F08001A96101260DE000BF06EBC6002D
:102E800004EB800090F85702012803D1F1B22046EC
:102E9000FFF7CAFC761C2079B042EFD8206806F014
:102EA000B9FAC0021FD501264F4614E005EB4610C3
:102EB000D0F8001906EBC60004EB8002107E012852
:102EC00008D1002906DAF0B240F08001D77520461B
:102ED000FFF7AAFC761C2079B042E7D82068416948
:102EE00001F480114161206806F094FA800234D523
:102EF00001204A4629E000BF05EB4011D1F8001B34
:102F000000EBC00304EB830393F85862012E1BD13E
:102F1000002919DA94F8D46401F4803106F001062E
:102F2000B14211D183F85722A96941F08003AB6106
:102F30006969090608D4D5F8040840F40070C5F89A
:102F4000040805E00A30544F401C21798142D3D84F
:102F50002068416901F400114161206806F05AFAC5
:102F6000400007D52046FFF744FC2068416901F086
:102F700080414161206806F04DFA40070AD520687B
:102F80004568680702D52046FFF74AFC206841687B
:102F900029434160BDE8FC9FD0F8E00405F0D9BAB0
:102FA000D0F8E00405F0E9BAF8B5040005D094F8CB
:102FB00095042668002510B106E00120F8BD84F8CC
:102FC0009454204600F056F8032084F89504B6F196
:102FD000A04F00D1A571206805F0AEFF207C8DF8D0
:102FE000000094E80F0005F007FE0226B8BB0021A0
:102FF000206806F032FA90BB002001270DE000BFE8
:1030000000EBC00104EB81014F750875C8850D7692
:10301000CD610D62401CC0B24D6221798142EFD872
:10302000002011E000EBC00104EB810181F8555252
:1030300081F8540281F85852C1F85C52C1F86052CC
:10304000401CC0B2C1F8645221798142EAD8207C88
:103050008DF8000094E80F0005F0B0FE10B184F880
:103060009564AAE7657484F89574206805F098FE65
:103070000020F8BD10B586B0044614216846FDF75F
:10308000A2FA2068B0F1A04F2FD1194800210268A0
:1030900042F001020260006800F0010005904FF468
:1030A000C05000900220CDE90101032003900A20C6
:1030B000049069460F48FEF7EFFE0D48001D0168B9
:1030C00041F0800101600A481430016841F48041F8
:1030D00001600068002200F4804005900521432033
:1030E000FFF72EFB4320FFF71EFB06B010BD0000CC
:1030F000303802400000024070B50446C079012516
:1031000070B1022801D0FDF771FD2946D4F8E00422
:1031100005F0A1FAD4F8E004BDE8704005F056BA15
:103120000025F2E7D0F8E00405F07EBAD0F8E0041C
:1031300005F084BA10B5044690F8940401280AD02A
:10314000012084F894046174206806F0B4F900202A
:1031500084F8940410BD022010BDD0F8E02400F2E1
:103160009C41104605F083BA10B50446006894F8F7
:103170009414012909D0012184F89414C1684906E6
:1031800009D5617B012902D005E0022010BD816BC9
:1031900041F480318163206806F0C3F8206805F0AF
:1031A000F1FD002084F8940410BD000010B5044621
:1031B000D0F8E00405F09DFA2068D0F8001E41F038
:1031C0000101C0F8001EE07A002804D0024801681E
:1031D00041F00601016010BD10ED00E02DE9F0475F
:1031E0000E46050065D0DFF81481D8F80000F7B26C
:1031F00000F00700B04207D288F80070D8F800004D
:1032000000F00700B04254D128683D4C810712D528
:10321000400703D5206840F4E0502060287800077C
:1032200003D5206840F4604020602068A96820F041
:10323000F000084320602878C0072DD03049686826
:103240000839012812D0022813D0032811D00968A8
:10325000890700292DDA216821F00301014321604B
:10326000FEF718FF814641F2883A0EE009688903AB
:10327000EFE709688901ECE7FEF70CFFA0EB090115
:10328000514502D90320BDE8F0872068696800F045
:103290000C00B0EB810FEFD1D8F80010404601F0E0
:1032A0000701B14207D90770006800F00700B0427B
:1032B00001D00120E7E72878400705D52068E968B4
:1032C00020F4E050084320602878000706D52068E5
:1032D000296920F4604040EAC100206000F05EF8F7
:1032E0002168084AC1F30311515CC84006490860CF
:1032F00006480068FFF79EF90020C4E7003C024042
:103300000838024024CD00088C00002084000020F2
:103310000F2202600C4A136803F003034360136832
:1033200003F0F0038360136803F4E053C360126892
:103330004FF4E05303EAD20202610448006800F04F
:10334000070008607047000008380240003C024057
:1033500001480068704700008C00002004480549BF
:1033600000680968044AC1F38221515CC840704773
:103370008C0000200838024034CD0008044805497C
:1033800000680968044AC1F34231515CC840704783
:103390008C0000200838024034CD0008154810B5D4
:1033A000006810F00C02144813D01449042A0FD0FE
:1033B000082A0ED10F4C241F2268236802F03F0216
:1033C0005B0207D52068C0F38810A0FB010106E06E
:1033D000084610BD2168C1F38811A1FB000100233C
:1033E000FCF7C2FF2168C1F30141491C4900B0FB51
:1033F000F1F010BD083802400024F400001BB700B3
:103400002DE9F84F04006ED02078DFF84C93C00708
:10341000A9F104054AD009F104000168C1F3810152
:10342000012908D00068C0F3810002280AD1D9F828
:103430000000400206D52868800337D56068002860
:10344000E1D033E06068B0F5803F10D0B0F5A02F38
:10345000286810D020F480302860286820F480206C
:1034600028606068A8B1FEF715FE06460DE02868E2
:1034700040F48030F4E740F480202860F7E700BF94
:10348000FEF708FE801B642873D828688003F7D5F0
:103490000CE0FEF7FFFD064605E000BFFEF7FAFD73
:1034A000801B6428F0D828688003F7D42078DFF8E0
:1034B000AC8280074FF0000A3ED5A748001D016886
:1034C00011F00C0F08D00068C0F3810002280BD166
:1034D000D9F80000400207D42868800716D5E068B4
:1034E000012800D112E033E1E068B8B10120C8F84A
:1034F0000000FEF7CFFD064605E000BFFEF7CAFD5F
:10350000801B0228C0D828688007F7D52868216961
:1035100020F0F80040EAC10028600DE0C8F800A0E3
:10352000FEF7B8FD064604E0FEF7B4FD801B022856
:103530001FD828688007F7D42078000722D5864F47
:1035400087486169703771B101210160FEF7A2FD02
:10355000064604E0FEF79EFD801B022809D8386865
:103560008007F7D50EE0C0F800A0FEF793FD0646F1
:1035700005E082E0FEF78EFD801B02287DD83868CA
:103580008007F7D42078400768D5DFF8CCB1002752
:103590000BF13C0BDBF80000C0000BD4DBF8001093
:1035A00041F08051CBF80010DBF80000012700F05B
:1035B000805000906B4E3068C00510D4306840F4E5
:1035C00080703060FEF766FD009005E0FEF762FD5A
:1035D0000099401A022850D83068C005F6D55E4ED2
:1035E000A0686C3601280FD00528306810D020F074
:1035F00001003060306820F004003060A068B8B18D
:10360000FEF748FD00900FE0306840F00100F4E75D
:1036100040F004003060F7E7FEF73CFD0099411AE6
:1036200041F28830814266D830688007F4D50EE0D8
:10363000FEF730FD009007E0FEF72CFD0099411ADF
:1036400041F28830814256D830688007F4D42FB1D7
:10365000DBF8001021F08051CBF80010A069C8B34E
:103660003D49091D0968C1F3810102294AD0022898
:10367000504607D0C8F8600000E03CE0FEF70AFDC5
:1036800004463BE04746C8F86000FEF703FD0646E7
:1036900005E000BFFEF7FEFC801B02282BD828683F
:1036A0008001F7D4D4E907010843A16A2E4A4908EA
:1036B00002EB0141626A41EA8211084394F82C103E
:1036C00040EA0161C9F8001001203866FEF7E2FC0B
:1036D000044606E03EE000BFFEF7DCFC001B0228CB
:1036E00009D828688001F7D534E000BFFEF7D2FC86
:1036F000001B022802D90320BDE8F88F286880014A
:10370000F4D427E00128F7D0D9F80000E26900F4EA
:10371000800191421CD1226A00F03F01914217D1F1
:1037200047F6C071626A0140B1EB821F10D1A26AF4
:103730004FF0FF3300F4403103EB5202B1EB024F84
:1037400006D194F82C1000F07060B0EB016F01D03E
:103750000120D1E70020CFE70438024000004742B3
:10376000800E4742007000400000FFFF70B504006B
:1037700009D0606A002540B125616561A56294F8B1
:10378000510040B10CE0012070BD6068B0F5827F4F
:10379000F4D0E561F2E784F85050204600F044F898
:1037A000022084F851002068016821F04001016086
:1037B000A088218900F4827001F404410843A189A2
:1037C00001F400610843217C01F002010843217DDE
:1037D00001F001010843218B01F400710843217FAE
:1037E00001F03801084394F8201001F080010843EB
:1037F000218D01F40051084321680860A06904216B
:1038000001EA104094F8241001F0100108432168E7
:1038100048602068C16921F40061C16165650120CB
:1038200084F85100002070BD2DE9F04786B00646AF
:1038300014216846FCF7C7FE3B493068884270D1C6
:103840003A480024016841F480510160006800F4A6
:103850008050059035481438016841F0020101603C
:10386000016801F002010591016841F00101016068
:103870000068022500F00100059010204FF00109BA
:103880008DE8210203274FF00508DFF8A4A0CDE959
:10389000037869465046FEF7FFFA0820CDE9000597
:1038A00002AA694682E890015046FEF7F5FA8020A8
:1038B0008DE82102CDE9037869461E48FEF7ECFA4F
:1038C0001E4D1D487F062860C5E901744FF48068CD
:1038D000C5E903486C617812AC61C5E90740284628
:1038E0006C62FEF717F908B1FDF780F9F564AE6375
:1038F000124D114860351830E5E802074020A5E870
:103900001101C00245F81449AC61C5E907400B48F4
:103910006C626030FEF7FEF808B1FDF767F9B56438
:10392000AE6306B0BDE8F087003001404438024085
:103930000004024000000240406402404C080020A5
:103940002DE9FF4F81B01D46934604464FF0010913
:103950000E9EFEF79FFB074694F851006168012810
:1039600006D0B1F5827F3CD1A168C9BB042838D10B
:103970000298002871D0BBF1000FFBD0002DF9D0C8
:1039800094F8500001282CD04FF0010A84F850A080
:1039900094F85100042802D0052084F851004FF01B
:1039A0000008C4F85480C4F838B0E587A5870299A8
:1039B0002163E586A586C4F84080C4F84480206869
:1039C0000168490603D4016841F040010160E068E4
:1039D000B0F5006F606808D0F0B3012D49D081E0E8
:1039E000FFE7022005B0BDE8F08F08B1012D39D105
:1039F000206B21680088C860206B801C2063E08EEB
:103A0000401EE0862EE02068816889070FD5E18E90
:103A100069B1B9F1010F0AD1216B0988C160206B2E
:103A2000801C2063E08E401EE0864FF00009206875
:103A30008168C9070CD0E18F51B1C068A16B0880C3
:103A4000A06B801CA063E08F401EE0874FF001094F
:103A5000FEF720FBC01B01E00BE067E0B04201D3A2
:103A6000701C50D1E08E0028CDD1E08F0028CAD143
:103A70003EE0206B216800780873206B401C2063B7
:103A8000E08E401EE0862DE02068816889070FD512
:103A9000E18E69B1B9F1010F0AD1216B0978017387
:103AA000206B401C2063E08E401EE0864FF0000932
:103AB00020688168C9070CD0E18F51B1C068A16B43
:103AC0000870A06B401CA063E08F401EE0874FF0A1
:103AD0000109FEF7DFFAC01BB04202D3701C01D00F
:103AE00011E086B1E08E0028CED1E08F0028CBD146
:103AF0003A463146204603F0F7FA50B1202060657F
:103B000084F8508012E084F851A084F8508003209B
:103B100068E7A06818B92068C1688068009084F8D8
:103B200051A084F85080606D0028F1D0012059E741
:103B30007047704710B590F83C20012A22D001222E
:103B400080F83C20CA688C6822F4407222434C689A
:103B500022F4806222430C6822F4006222430C6942
:103B600022F4805222434C6922F400522243C96954
:103B7000002322F480420A4301684A6480F83C3002
:103B8000002010BD022010BD70B590F83C20012A25
:103B900032D0012480F83C40022280F83D200368A6
:103BA0005A689D6822F070060A6832435A60134BC7
:103BB00002689A4214D0B2F1804F11D0104B9A4251
:103BC0000ED0104B9A420BD00F4B9A4208D00F4B9D
:103BD0009A4205D00E4B9A4202D00E4B9A4204D123
:103BE000496825F080031943916080F83D40002129
:103BF00080F83C10084670BD022070BD00000140F6
:103C00000004004000080040000C00400004014097
:103C1000004001400018004010B5040003D094F8A3
:103C20003D0010B107E0012010BD002084F83C00E9
:103C3000204600F01FF8022084F83D00211D206876
:103C400003F02EFC012084F8460084F83E0084F83E
:103C50003F0084F8400084F8410084F8420084F872
:103C6000430084F8440084F8450084F83D000020B7
:103C700010BD000008B500681149884209D11148FB
:103C8000016841F400310160006800F400300090E8
:103C900008BD0D498842FBD10A48001F016841F068
:103CA000800101600068002200F080000090052182
:103CB0002C20FEF745FDBDE808402C20FEF733BD63
:103CC0000044014044380240001C004090F83D1080
:103CD000012901D001207047022180F83D100168C0
:103CE000CA6842F00102CA6000681149884214D0D3
:103CF000B0F1804F11D00F4988420ED00E49884252
:103D00000BD00E49884208D00D49884205D00D4994
:103D1000884202D00C49884204D1816801F0070131
:103D2000062903D0016841F00101016000207047BD
:103D3000000001400004004000080040000C00406A
:103D400000040140004001400018004070472DE988
:103D5000F04104460068C66805694FF00007A907EE
:103D600013D5B10711D5F91E016101202077206814
:103D700080698007204602D0FFF7E8FF04E000F0EA
:103D8000C1F8204600F066F92777680716D5700756
:103D900014D521686FF004000861022020772068A4
:103DA000806910F4407F204602D0FFF7CFFF04E087
:103DB00000F0A8F8204600F04DF92777280715D520
:103DC000300713D521686FF00800086104202077C0
:103DD0002068C0698007204602D0FFF7B7FF04E0E3
:103DE00000F090F8204600F035F92777E80616D560
:103DF000F00614D521686FF01000086108202077C4
:103E00002068C06910F4407F204602D0FFF79EFF73
:103E100004E000F077F8204600F01CF92777E80767
:103E200008D0F00706D021686FF001000861204635
:103E300000F012F9280608D5300606D521686FF083
:103E4000800008612046FFF773FE680608D57006FB
:103E500006D521686FF040000861204600F006F9A1
:103E6000A8060AD5B00608D521686FF020000861C1
:103E70002046BDE8F041FFF75CBEBDE8F0810000E0
:103E800010B586B0044614216846FCF79CFB2368F5
:103E9000174C002117480222A34211D1036843F0B6
:103EA00010030360006800F01000059010020090FD
:103EB000CDE901210120CDE9031069460E4813E048
:103EC0000E4CA34212D1036843F020030360006844
:103ED00000F02000059040200090CDE90121032052
:103EE000CDE9031069460648FDF7D6FF06B010BDC0
:103EF0000000014030380240001002400044014000
:103F000000140240704770B5044690F83C0000264B
:103F10000D4601280FD0012084F83C006AB1042A24
:103F20001DD0082A2FD00C2A3FD00126002084F86B
:103F30003C00304670BD022070BD206803F01CFBC1
:103F40002068816941F0080181612068816921F060
:103F500004018161206881692A69114311E02068A8
:103F600003F03AFB2068816941F4006181612068B7
:103F7000816921F480618161206881692A6941EA4F
:103F800002218161D2E7206803F05CFB2068C169EF
:103F900041F00801C1612068C16921F00401C161DB
:103FA0002068C1692A69114311E0206803F07EFB93
:103FB0002068C16941F40061C1612068C16921F4D0
:103FC0008061C1612068C1692A6941EA0221C16139
:103FD000ACE710B5040003D094F83D0010B107E041
:103FE000012010BD002084F83C00204600F01EF89F
:103FF000022084F83D00211D206803F051FA0120C1
:1040000084F8460084F83E0084F83F0084F84000BD
:1040100084F8410084F8420084F8430084F84400A6
:1040200084F8450084F83D00002010BD08B5006804
:104030000649884208D10648016841F00101016043
:10404000006800F00100009008BD00000000014081
:10405000443802407047000000680349884201D19B
:10406000FEF7C6BA70470000001000407047704766
:1040700070470000F8B5016804460868CA684B69D3
:1040800010F00F0F4FF0000559D003F0010602F4B5
:104090009077374365D0C10705D0D10503D5616C52
:1040A00041F001016164410705D5D90703D0616C76
:1040B00041F002016164810705D5D90703D0616C25
:1040C00041F004016164010707D502F0200131438A
:1040D00003D0616C41F008016164616C00293AD041
:1040E000800604D5900602D5204603F0BBFB20686D
:1040F0004069616CC0F38010090700D460B32046AA
:1041000003F07BFB20684069400621D5206814300D
:1041100050E8001F21F0400140E80012002AF5D1CC
:10412000E06BA8B16E490165E06BFDF710FC00285B
:1041300011D0E06B016D01B0BDE8F0400847830687
:104140000FD593060DD52046BDE8F84003F08ABB95
:104150002046FFF78DFFF8BD2046FFF789FF656415
:10416000F8BD266B2023012E7DD1C6067BD5D60651
:1041700079D508684868009048694FF00206400603
:1041800041D5E16B086840680004000CE8D0A28DBE
:104190008242E5D9E085C869B0F5807F2DD02068DE
:1041A0000C3050E8001F21F4807140E80012002A12
:1041B000F5D12068143050E8001F21F0010140E8DB
:1041C0000012002AF5D12068143050E8001F21F0B9
:1041D000400140E80012002AF5D184F842302563FE
:1041E00020680C3050E8001F21F0100140E8001258
:1041F000002AF5D1E06BFDF761FB6663A08DE18DD0
:10420000401A81B22AE0A08DE18D401A81B2E08D82
:104210000028A5D00029A3D022680C3252E8000F54
:1042200020F4907042E80007002FF5D12068143088
:1042300050E8002F22F0010240E80027002FF5D1BE
:1042400084F84230256320680C3050E8002F22F0BB
:10425000100240E80023002BF5D166632046FFF7EB
:1042600006FFF8BDFFE705062BD5150629D594F8FE
:1042700041002128F5D1A068B0F5805F01D1206907
:10428000B0B1206A411C2162216800784860E08C4E
:10429000401E0004000CE084E3D12068C16821F0D6
:1042A0008001C1602068C16841F04001C160D8E769
:1042B000206A0088C0F308004860206A801C2062E1
:1042C000E5E74006CDD55006CBD5CA68204622F09A
:1042D0004002CA6084F8413000F00EF9C1E70000E6
:1042E000FD76000870B5040004D094F84100002564
:1042F00010B106E0012070BD84F84050204600F067
:1043000023F8242084F841002068C16821F400517A
:10431000C160204603F008FB2068016921F4904148
:1043200001612068416921F02A0141612068C1686A
:1043300041F40051C1606564202084F8410084F894
:1043400042006563002070BD2DE9F04F87B005463F
:1043500014216846FCF737F9564B2968564802265F
:104360000322072700244FF4807B4FF000694FF4AD
:10437000806A994267D1504914310B6843F01003A9
:104380000B60096801F010010591016841F002011C
:104390000160016801F002010591016841F001012D
:1043A00001600068CDE9024200F001000590802024
:1043B000CDE900069046694604974048FDF76CFD3C
:1043C0003002CDE90006CDE90248694604973C4831
:1043D000FDF762FD3C4E3B484F463060C6E9019414
:1043E000C6E9034A7461B461F4613462D046304670
:1043F0007462FDF78FFB08B1FCF7F8FBEE63B56361
:10440000314E304860363030E6E802074020A6E8FA
:1044100011012D4846F814496030C6E9064B346254
:104420007462FDF777FB08B1FCF7E0FBAE63002296
:1044300005212520B563FEF783F92520FEF773F9E2
:1044400007B0BDE8F08F214B9942F9D11A491031DC
:104450000B6843F480230B60096801F48021059107
:10446000016841F0040101600068CDE9024200F0FA
:10447000040005904FF44060CDE9000669460497BA
:104480001348FDF709FD104E1248C0363060C6E9EA
:104490000194C6E9034A7461C6E9064B34623046AA
:1044A0007462FDF737FB08B1FCF7A0FBEE63B56360
:1044B000C6E700000010014030380240000402400E
:1044C0000000024088640240740A00200048004056
:1044D000000802402860024090F84230202B01D0B2
:1044E0000220704721B11AB10023036303F0A2BA7E
:1044F00001207047704770477047FEE701684A69BE
:10450000D24352050FD46FF480624A61002140F813
:10451000301F202242738173026942F0040202615B
:104520000173012070470020704700002DE9F84F0B
:104530000446006889460B9D01689846174641F479
:10454000806101602068016841F48071016000951C
:104550004FF0011B0022594620460A9B00F0E4F868
:104560004FF4007A40B120680068C00501D5C4F856
:1045700040A00320BDE8F88F216809F0FE00086123
:104580002B46284920460A9A00F016F9F0BB20680D
:104590004169806900902A4620460A9900F0A2F9F4
:1045A00040B1206C04283AD12068016841F40071C0
:1045B000016034E0FEB2B8F1010F09D02168380A79
:1045C00008612A4620460A9900F08CF90028E8D1B3
:1045D000206806612A4620460A9900F083F90028DF
:1045E000DFD12068016841F48071016000950022EC
:1045F000594620460A9B00F097F80028B3D121685D
:1046000009F0FF0040F00100086100E007E02B46E0
:10461000044920460A9A00F0CFF80028AAD00120C9
:10462000A8E70000020001002DE9F84304460068F5
:104630000D46DDE9089701689846164641F48071F9
:1046400001604B4600224FF001112046009700F018
:104650006BF848B120680068C00502D54FF40070BF
:1046600020640320BDE8F883216805F0FE0008619E
:104670003B464A461549204600F09EF888B9206816
:104680004169806900903A464946204600F02AF97F
:1046900048B1206C042804D12068016841F40071FD
:1046A00001600120DEE7F5B2B8F1010F09D0216801
:1046B000300A08613A464946204600F013F90028BE
:1046C000E7D1206805610020CCE70000020001006E
:1046D00070B516460D4604461EE02046FFF70EFF55
:1046E00008B1012070BD681C16D0FDF7D3FC801BFB
:1046F000A84200D885B920684069C04340070BD55F
:10470000002044F8300F20216173A073216941F02B
:10471000200121612073E4E720684069C04340071D
:10472000DBD4002070BD00002DE9F0479846174605
:104730000D460446C1F30746DDF820902AE000BF8D
:10474000B8F1FF3F26D0FDF7A5FCA0EB09014145DC
:1047500002D8B8F1000F1DD12068012E16D0806953
:1047600025EA00000004000C12D00020B84211D14C
:10477000002044F8300F20216173A073216941F0BB
:104780002001216120730120BDE8F0874069E7E73F
:104790000120EBE72068012E0AD0806925EA00009D
:1047A0000004000C06D00020B842C9D00020EBE77E
:1047B0004069F3E70120F7E72DE9F04798461646F0
:1047C0000D4604464FF000094FF0200AC1F3074799
:1047D00023E020684069C043400515D42068016883
:1047E00041F40071016021686FF480604861C4F891
:1047F000309084F83DA084F83E90216C41F0040193
:10480000216484F83C9021E0701C06D0FDF742FC46
:10481000A0EB0800B04203D816B1012F1FD021E051
:104820002068012F15D0806925EA00000004000CE3
:1048300018D000BF44F8309F84F80DA084F80E9083
:10484000216941F02001216184F80C900120BDE82C
:10485000F087406925EA00000004000CEAD12068D6
:10486000406901E02068806925EA00000004000C2E
:10487000AFD1ECE72DE9F041002590460E46044605
:10488000202728E04069C043C0060CD454F8301BF0
:104890006FF01000486144F810596777A577206AD7
:1048A0002062257714E0FDF7F5FBA0EB0800B0428D
:1048B00000D886B920684069C04340060BD544F84B
:1048C000305F6773A573206940F020002061257375
:1048D0000120BDE8F08120684169C9434906D1D46F
:1048E0000020F6E770B516460D4604461EE0204649
:1048F000FFF704FE08B1012070BD681C16D0FDF75B
:10490000C9FB801BA84200D885B920684069C04314
:1049100000060BD5002044F8300F20216173A073EE
:10492000216941F0200121612073E4E7206840699A
:10493000C0430006DBD4002070BD000010B502E0CB
:10494000642006F0A7F8FBF75FFF0028F8D102E02B
:10495000642006F09FF805F0BFFF0028F8D12D4A2B
:10496000A2F11004211D101DFBF766FFDFED2A1ACE
:104970009FED2A1ADFED2A0AB0EE613AF0EE612AC5
:10498000B0EE612A9FED270A274A002104F14C006E
:1049900006F06AFA04F12802211DA2F15C00FBF77F
:1049A00085FEA4F14C0094ED010AA0F10C0180ED0C
:1049B000000AA0F1180281ED000A82ED000A94EDD0
:1049C000020A80ED010A81ED010A82ED010A94EDEF
:1049D000030A80ED020A81ED020A82ED020A00203C
:1049E00006F08EF807F0AEFB0F4C10496C3CE0630C
:1049F0001020C8610846FEF7B9FE08B1FCF7F6F8CA
:104A0000094908221439A1F1080002F0F5FA012041
:104A1000207110BD2065002000000000E6B1617F1C
:104A20000080894500A08C4520020020F40700206A
:104A30002DED0E8B8EB00026FFF780FFFE4FB3EEFC
:104A400009CA07F11400A7F1240ADFEDFC8ADFEDA3
:104A5000FCDADFEDFCCA9FEDFCEADFF8F0B3B2EE62
:104A600000DA9FEDFB9B9FEDFCAB9FEDFDBBDFF8FC
:104A7000F883B146CDF8100007F0B4FB0D90FB4869
:104A8000F1EE080A012190ED080AF94806F036FA1D
:104A90004FF0FF342146012006F0CAFD0128F9D16C
:104AA000F44C607908B9761CB6B2607930B9B6F5C5
:104AB000FA7F03D9012060714FF42F7620784007E8
:104AC00008D5207820F004002070EA480499593075
:104AD000FBF76AFE607840070AD5607820F0040092
:104AE0006070D54A391D2032A2F12A00FBF716FE6C
:104AF000A07840070DD5A07820F00400A070CE4922
:104B0000DC4810314230FBF771FF97ED040A05F0E5
:104B1000F1FCC94B2833A3F174029FEDD70A02F1CF
:104B200018000499FBF7D2FDC34B55461C3BA3F17B
:104B300008012A1DA1F1100005F054FAFDF7AAFAA8
:104B4000A064616961B1411A00EE101AD4ED110A36
:104B5000B8EEC01A94ED040A40EE010AC4ED110A41
:104B6000D5ED000A9FEDC50A60EE801ADFEDC40A9C
:104B7000B14981EEA01AD4ED111A183931EE218A0B
:104B800081ED008A84ED0E8A95ED011A61EE001A1E
:104B900081EEA01A81ED011A95ED021A21EE000AAC
:104BA00080EE201A81ED021A6061B2484C3080ED2F
:104BB000008AB448007801287ED1B34D686802901D
:104BC00007F0F8FF9FEDB11B53EC112B07F0B2FC7F
:104BD0009FEDB01B53EC112B07F004FE07F0D0FB48
:104BE00000EE100A8BED000AA87E01284FD1206A42
:104BF000012803D184ED068AC4F820902878312852
:104C000001D032283FD1D4ED06EA78EE0C0A30EE1E
:104C10002E0AB4EEE00AF1EE10FA39D278EE4C0A20
:104C2000B4EEE00AF1EE10FA32DD029807F0C2FFAE
:104C300053EC192B07F07EFC53EC1A2B07F0D2FD36
:104C400053EC1B2B07F0CEFB07F09AFB7EEEC80A55
:104C50009FED921AB0EE680AC8F8100000EE810AC3
:104C60008F4910EE100A84ED090A884221DC00BF4A
:104C700094ED090A40F241118A48BDEEC00A10EED7
:104C8000102A00F04DFE2878302816D0A8B134E064
:104C90007EEEC80A88ED04EA9FED801AB0EE680A3D
:104CA0007F4800EE810A10EE101A84ED090A814255
:104CB000DEDDC4ED09DADBE753E094ED060AD4ED5E
:104CC0000E0A70EE600A9FED751AB0EE680A74481D
:104CD00000EE810A10EE101A84ED090A814201DD0E
:104CE000C4ED09DA94ED090A40F241116D48BDEEB8
:104CF000C00A10EE102A00F013FEA87E88BB012027
:104D000020622878312801D0322852D1E069012868
:104D100005D194ED0E0A84ED060AC4F81C909BEDB3
:104D2000000AD4ED060A70EE200A94ED0E0A30EE69
:104D30002C1AF4EEC10AF1EE10FA06DC30EE6C1A11
:104D4000F4EEC10AF1EE10FA01D288ED04EA30EE79
:104D50000D1AF4EEC10AF1EE10FA03DD42F6E0623C
:104D600008E032E030EE4D0AF4EEC00AF1EE10FA3F
:104D700006D24D4A40F241114A4800F0D1FD18E0F8
:104D8000002240F24111474800F0A7FD686807F093
:104D900011FF53EC192B07F0CDFB53EC1A2B07F046
:104DA00021FD53EC1B2B07F01DFB07F0E9FAC8F8B7
:104DB00010002878302800D038B9002240F2411184
:104DC000384800F08AFD0120E061B8F8041098ED41
:104DD000040A00EE901A354A4046F8EE600A70EE7A
:104DE000600AF0EEE00A10EE901A914202DDF7EE52
:104DF000000A01E0DFED2E0A10EE101A2D4AC0ED78
:104E0000190A914203DC9FED2C0A80ED040A10EE92
:104E1000102A2A498A4203DB9FED290A88ED040AF9
:104E200005F09CFF05F0DAFDA06B0B9040F204400A
:104E3000CDF81C9046E000001065002000401C47A3
:104E400000606A470000204200202745C802002079
:104E50004AD8124DFB2119400000000000FFBF405E
:104E60000000000000E4A440240300205866002055
:104E700050070020B40100206F12833A0000344331
:104E8000DB0F49404E020020BC6600206E861BF0FE
:104E9000F921194000000000008076400060EA45DA
:104EA00000606A477807002020D1FFFF0000FA4425
:104EB0000000964300C0DA4400C0DA4400B0574511
:104EC00000B05745059008200990CDF820900123A7
:104ED0000BAA05A90348FBF79DFE01210DA806F0CA
:104EE000F3FCC9E578070020F0B500230A2430253B
:104EF00037261F4611E000BFB4EB107F02D905EB47
:104F0000107C01E006EB107C01F813C001EB430CB0
:104F100000015B1C8CF80170DBB29342ECD3F0BD56
:104F2000884201DA084670479042FCDD104670471F
:104F3000104810B50E4901600321416000214FF473
:104F400010228160C0E903124FF400124261017621
:104F5000417681760122C27601774177FCF7E1F84C
:104F6000002803D0BDE81040FBF740BE10BD000094
:104F700000640040500700200F4810B50D49016043
:104F80000321416000214FF410228160C0E9031227
:104F90004FF400124261017641768176C176017745
:104FA0004177FCF7BEF8002803D0BDE81040FBF7BE
:104FB0001DBE10BD0068004078070020074910B5ED
:104FC000054808600846FCF754FC002803D0BDE8FB
:104FD0001040FBF70BBE10BD003002401400002053
:104FE0001D4808B5016841F480010160016801F4C1
:104FF00080010091016841F4001101600068002205
:1050000000F40010009005210C20FDF799FB0C2006
:10501000FDF789FB002205213A20FDF791FB3A209C
:10502000FDF781FB002205213B20FDF789FB3B209A
:10503000FDF779FB002205214420FDF781FB442088
:10504000FDF771FB002205214620FDF779FBBDE845
:1050500008404620FDF767BB3038024010B59CB0D1
:105060001C2216496846FBF75AFA0021684605F0EB
:105070001DFD134C11491C2220601C3107A8FBF7B1
:105080004EFA002107A805F011FD0C4960601C22B2
:1050900038310EA8FBF743FA00210EA805F006FDF3
:1050A0000649A0601C22543115A8FBF738FA0021EC
:1050B00015A805F0FBFCE0601CB010BDACCC0008EE
:1050C000000000202DE9F04F87B014216846FBF75F
:1050D0007AFA6E480025016841F00201016001681A
:1050E00001F002010591016841F0010101600168D0
:1050F00001F001010591016841F0080101600168BA
:1051000001F008010591016841F0040101600168A6
:1051100001F004010591016841F08001016001681E
:1051200001F080010591016841F0200101600168F2
:1051300001F020010591016841F040010160016822
:1051400001F040010591016841F010010160006823
:10515000DFF83C8100F010004FF4807405900022CD
:1051600021464046FCF790FFDFF8289101224021BC
:105170004846FCF789FFDFF820B14FF4E0570022E2
:1051800039465846FCF780FFDFF810A101221021B4
:105190005046FCF779FF012211464148FCF774FFA5
:1051A00000940124694640460194CDE90245FCF78C
:1051B00073FE02204FF48816CDE900066946029579
:1051C0003848FCF769FE4020CDE9000402946946A6
:1051D00048460394FCF760FE0097CDE90145694617
:1051E00058460395FCF758FE0820CDE900066946AD
:1051F00002944846FCF750FE10208DE831006946C5
:1052000050460395FCF748FE3020CDE9000669467C
:1052100002944046FCF740FECDE900466946484608
:105220000295FCF739FE0094CDE9014569461C481A
:105230000395FCF731FE062100220846FDF780FAAF
:105240000620FDF770FA002205210720FDF778FA05
:105250000720FDF768FA002205210920FDF770FA02
:105260000920FDF760FA002205210A20FDF768FAFF
:105270000A20FDF758FA002205211720FDF760FAF1
:105280001720FDF750FA07B0BDE8F08F3038024024
:105290000008024000180240001C024000000240CA
:1052A00000040240001402400D4810B50B49016093
:1052B0000C49416000214FF480428160C0E9031233
:1052C00041618161C1610162FCF7EAFE002803D0FF
:1052D000BDE81040FBF78ABC10BD0000005C004038
:1052E000A0070020801A0600104810B50E49016082
:1052F0004FF482714160002102228160C0E90312F3
:1053000001224261520282613822C0E907214162D2
:1053100081620A21C162FEF729FA002803D0BDE8A4
:105320001040FBF763BC10BD00300140F4070020C3
:1053300010B588B01C216846FBF745F9144813499D
:105340000024C0E9001441F28731C0E90241046140
:105350008461FEF761FC08B1FBF748FC0C48FEF7DE
:1053600038FE08B1FBF742FC6020CDE9000402944E
:105370000022694606480494FEF7C5FD08B1FBF714
:1053800035FC0348FEF77CFD08B010BD0044014029
:10539000540900200C4810B50A49016042F2CF01BF
:1053A0004160002142F20F72C0E902120161816185
:1053B000FEF732FC002803D0BDE81040FBF716BC16
:1053C00010BD0000001C00409C09002010B592B0E8
:1053D00000240F941C2108A81094FBF7F4F8202156
:1053E0006846FBF7F0F821481F49016040F28F61E1
:1053F000C0E9011440F2CF71C0E903144461846133
:10540000FEF7E7FD08B1FBF7F1FB0F940FA9174872
:105410001094FEF7B9FB08B1FBF7E8FB6020CDE97B
:1054200008040A940B940C940D94002208A90F48C8
:105430000E94FEF768FD08B1FBF7D8FB00944FF41B
:105440000050CDE904400294019403946946074852
:105450000794FEF76FFB08B1FBF7C8FB0348FEF7A4
:105460000FFD12B010BD0000000001400C0900202B
:105470000C4810B50A4901604FF4E1314160002148
:1054800081600C22C160C0E904128161C161FEF734
:1054900029FF002803D0BDE81040FBF7A7BB10BDD3
:1054A00000100140E40900200E4810B50C490160CD
:1054B0000D4941604FF48051816000214FF48062BA
:1054C000C0E903120C22C0E90521C161FEF70AFF01
:1054D000002803D0BDE81040FBF788BB10BD0000DA
:1054E000004800402C0A0020A086010010B50022D0
:1054F0000F49104802F012FF08B1FBF777FB0E4985
:105500000C4803F022F908B1FBF770FB0B4909487E
:1055100002F0A6FC08B1FBF769FB064803F098F916
:10552000002803D0BDE81040FBF760BB10BD0000B1
:105530001C000020DC0B0020500100206C0000202B
:10554000F5EEC01AB0EE413AF0EE603AB0EE404AE5
:10555000F1EE10FA00B5024609D1B5EEC02AF1EE1F
:1055600010FA04D1F5EEC02AF1EE10FA78D021EE4F
:10557000A10A02EE020A02EEA20A05F05DF921EE8E
:10558000805A62EE004A92ED011AD2ED030A22EE31
:10559000800AD2ED002A21EE202AD2ED021A22EE54
:1055A000811A5C4802EEE12A01EEA01AF6EE001A1A
:1055B00052EEA21A40EEA01A60EE020A64EEA12A90
:1055C00045EE610A40EE412A25EE010A90ED011AEE
:1055D00004EEC20AB5EEC01AF1EE10FA2CDD90ED21
:1055E000011AD0ED021A21EE222A9FED4B1A42EE4B
:1055F000011AC0ED021AD0ED011A21EEA02AD0ED59
:10560000031A42EE011AC0ED031AD0ED011A21EE81
:10561000802AD0ED041A42EE011AC0ED041A90ED72
:10562000021A34EE014A90ED031A73EE813A90EDBE
:10563000041A33EE013A07E09FED381A80ED021AA2
:1056400080ED031A80ED041A90ED001A01EE224A53
:1056500090ED001A41EE203AD0ED000A00EE803ABB
:105660009FED2F0AD2ED021A24EE002A63EE802A63
:1056700023EE001A92EC020A92ED033A60EEC23A6F
:1056800041EEE23A43EE413A73EE804A60EE023A6E
:10569000C2ED004A41EE813A43EE623A33EEA04A4F
:1056A00060EE223A20EE010A82ED014A40EEC13A54
:1056B00000EEA20A43EE023A01EEC20A73EEA13AEC
:1056C00070EE030A24EEA40AC2ED023AC2ED030A08
:1056D00004EE040A03EEA30A00EEA00A05F0ACF8FB
:1056E000D2ED000A60EE800AC2ED000AD2ED010A96
:1056F00060EE800AC2ED010AD2ED020A60EE800A75
:10570000C2ED020AD2ED030A20EE800A82ED030AFE
:1057100000BD00002C0200206F12833A0000000040
:105720006F12033AFEE7000030B589B0054600204D
:1057300005900291FF210490082006908DF800103A
:105740008DF804108DF801108DF80510FC208DF8EF
:1057500002108DF806108DF803108DF80700002454
:1057600001E0641CE4B20748FBF7C7FB08B9642CEE
:10577000F7D301236A4602A92846FBF74BFA09B082
:1057800030BD00007807002030B589B0054601F52E
:10579000807100200091FF21029003900820049066
:1057A0008DF818108DF81C108DF819108DF81D103B
:1057B000FC208DF81A108DF81E108DF81B108DF836
:1057C0001F00002401E0641CE4B20F48FBF795FBC6
:1057D00008B9642CF7D3012306AA69462846FBF7CB
:1057E00019FA00280DD0022306AA69462846FBF7BD
:1057F00011FA002805D0042306AA69462846FBF7BB
:1058000009FA09B030BD00007807002030B5034622
:1058100002600C46B1F80100C97865790A01217966
:1058200040BA42EA111201F00F0145EA01251021A8
:10583000DFED140A9FED140A05F0E6FE83ED070A7A
:105840000C21F3EE0E0ABBEE0E0A104605F0DCFE4C
:1058500083ED050A0C21F2EE040ABAEE040A28468A
:1058600005F0D2FE83ED0A0AA07900EE100AB8EE28
:10587000400A83ED0B0A586B401C586300201863E4
:1058800030BD0000D90F4940D90F49C010B588B0CC
:1058900004460091002108200291CDE903108820E0
:1058A0008DF818008DF819108DF81A108DF81B104E
:1058B0000791012306AA69462046FBF7ABF90223AC
:1058C00006AA69462046FBF7A5F9042306AA6946FD
:1058D0002046FBF79FF908B010BD00B589B008233A
:1058E000029100210491CDE90513A7238DF8003022
:1058F0008DF801108DF802108DF803108DF804203A
:10590000110A8DF80510110C8DF80610110E8DF886
:10591000071001236A4602A9FBF77CF909B000BD14
:1059200000B589B00823029100210491CDE9051347
:10593000A2238DF800308DF801108DF802108DF83B
:1059400003108DF80420110A8DF80510110C8DF844
:105950000610110E8DF8071001236A4602A9FBF705
:1059600059F909B000BDFEE70148FDF767B800002E
:10597000D82200202DE9F04103680D4604461E6C34
:1059800003EB4511D1F8080B94F806E04FF40047FB
:105990004FF0200C04F29C42BEF1010F09D0DFF859
:1059A00098E0764539D1020432D500BFC1F8087BB2
:1059B0003FE0224B5FEA007E04D59E4239D90004C5
:1059C000F4D436E05FEA806E02D5C1F808CB30E04F
:1059D00010F0280F2DD19E4201D90004E6D405EB2A
:1059E000C50004EB8000D1F8101BD0F87432C1F36D
:1059F0001201591AC0F8681200F51570ADB90369A3
:105A00001BB1C2681144C1600FE0012120680AE0A7
:105A100080060AD5C1F808CB07E035B9D4F864028E
:105A200018B90021184603F08DFAE9B22046FCF7B8
:105A3000EDFE0020BDE8F0810A31544F0A30544F8A
:105A40002DE9F84F0E4601EBC60100EB81048146BB
:105A50000568D4E909101434884202D90120BDE850
:105A6000F88F081AA168814200D20846C01C870836
:105A700005EB46181BE000BFA0EB010AA0685045EB
:105A800000D282460AF10300870899F806000090C8
:105A90001FFA8AF3F2B22846E16803F091FDE1684B
:105AA00001EB0A00E060616901EB0A006061D8F86F
:105AB000180980B2B84205D3D4E90401814201D269
:105AC0000028D9D1D4E90401884208D806F00F0192
:105AD00001208840D5F834188143C5F834180020D7
